{
  "transactions": [
    {
      "hash": "0xd9ea0e8e4624852db3746a68cb355afc72ce9da1e5dd39820f70e6975dc99021",
      "transactionType": "CALL",
      "contractName": null,
      "contractAddress": "0x6e9d5082a43fb5dd20f86ae4dd5b9203b207b562",
      "function": "grantBridgeRole(address)",
      "arguments": [
        "0x066F33bFa6f9bA7ae10fd87C7981c5110170AafE"
      ],
      "transaction": {
        "from": "0xf8f0f5c8c3fdc3213c7bf6e4140257f8f09d22a9",
        "to": "0x6e9d5082a43fb5dd20f86ae4dd5b9203b207b562",
        "gas": "0x1175b",
        "value": "0x0",
        "input": "0xa5e99b8e000000000000000000000000066f33bfa6f9ba7ae10fd87c7981c5110170aafe",
        "nonce": "0x158",
        "chainId": "0x14a34"
      },
      "additionalContracts": [],
      "isFixedGasLimit": false
    },
    {
      "hash": "0xb693095f6346fb83295d97cf352da52d6a5a1a9307eabb239d9a95c28a2c9a8c",
      "transactionType": "CALL",
      "contractName": null,
      "contractAddress": "0x930cbe59d8a8f151a513d3c6b4d22eb61eb3b291",
      "function": "grantBridgeRole(address)",
      "arguments": [
        "0x066F33bFa6f9bA7ae10fd87C7981c5110170AafE"
      ],
      "transaction": {
        "from": "0xf8f0f5c8c3fdc3213c7bf6e4140257f8f09d22a9",
        "to": "0x930cbe59d8a8f151a513d3c6b4d22eb61eb3b291",
        "gas": "0x1175b",
        "value": "0x0",
        "input": "0xa5e99b8e000000000000000000000000066f33bfa6f9ba7ae10fd87c7981c5110170aafe",
        "nonce": "0x159",
        "chainId": "0x14a34"
      },
      "additionalContracts": [],
      "isFixedGasLimit": false
    }
  ],
  "receipts": [
    {
      "status": "0x1",
      "cumulativeGasUsed": "0xb2bbd",
      "logs": [
        {
          "address": "0x6e9d5082a43fb5dd20f86ae4dd5b9203b207b562",
          "topics": [
            "0x2f8788117e7eff1d82e926ec794901d17c78024a50270940304540a733656f0d",
            "0x52ba824bfabc2bcfcdf7f0edbb486ebb05e1836c90e78047efeb949990f72e5f",
            "0x000000000000000000000000066f33bfa6f9ba7ae10fd87c7981c5110170aafe",
            "0x000000000000000000000000f8f0f5c8c3fdc3213c7bf6e4140257f8f09d22a9"
          ],
          "data": "0x",
          "blockHash": "0xc459279b527132283f70c70e4da54dbcd26f40758074917cff774a8686babccd",
          "blockNumber": "0x1a020e0",
          "blockTimestamp": "0x6853a0a0",
          "transactionHash": "0xd9ea0e8e4624852db3746a68cb355afc72ce9da1e5dd39820f70e6975dc99021",
          "transactionIndex": "0x4",
          "logIndex": "0x17",
          "removed": false
        }
      ],
      "logsBloom": "0x00000004000000000000008000000000000000100000000000000000040000000000000000000800000004000000000000000000000000000000000000000000000400000000000000000000000000000000000000000000000000000000000000000000000000000000000000000000000000000000000000000000080000000000000000000000008000000000000000000002000000000000000000000000000000000000000000000000000000000000000000000000001000000000000040000000000000000000000800000000000000000000000100000000000000000000000000000000000000000000000000000000000000000000040000000000",
      "type": "0x2",
      "transactionHash": "0xd9ea0e8e4624852db3746a68cb355afc72ce9da1e5dd39820f70e6975dc99021",
      "transactionIndex": "0x4",
      "blockHash": "0xc459279b527132283f70c70e4da54dbcd26f40758074917cff774a8686babccd",
      "blockNumber": "0x1a020e0",
      "gasUsed": "0xca40",
      "effectiveGasPrice": "0x1d2b9",
      "from": "0xf8f0f5c8c3fdc3213c7bf6e4140257f8f09d22a9",
      "to": "0x6e9d5082a43fb5dd20f86ae4dd5b9203b207b562",
      "contractAddress": null,
      "l1BaseFeeScalar": "0x44d",
      "l1BlobBaseFee": "0x1",
      "l1BlobBaseFeeScalar": "0xa118b",
      "l1Fee": "0x185b",
      "l1GasPrice": "0xdae",
      "l1GasUsed": "0x640"
    },
    {
      "status": "0x1",
      "cumulativeGasUsed": "0xbf5fd",
      "logs": [
        {
          "address": "0x930cbe59d8a8f151a513d3c6b4d22eb61eb3b291",
          "topics": [
            "0x2f8788117e7eff1d82e926ec794901d17c78024a50270940304540a733656f0d",
            "0x52ba824bfabc2bcfcdf7f0edbb486ebb05e1836c90e78047efeb949990f72e5f",
            "0x000000000000000000000000066f33bfa6f9ba7ae10fd87c7981c5110170aafe",
            "0x000000000000000000000000f8f0f5c8c3fdc3213c7bf6e4140257f8f09d22a9"
          ],
          "data": "0x",
          "blockHash": "0xc459279b527132283f70c70e4da54dbcd26f40758074917cff774a8686babccd",
          "blockNumber": "0x1a020e0",
          "blockTimestamp": "0x6853a0a0",
          "transactionHash": "0xb693095f6346fb83295d97cf352da52d6a5a1a9307eabb239d9a95c28a2c9a8c",
          "transactionIndex": "0x5",
          "logIndex": "0x18",
          "removed": false
        }
      ],
      "logsBloom": "0x00000004000000000000000000000000000000100000000000000000040000000000800000000800000004000000000000000000000000000000000000000000000400000000000000000000000000000000000000000000000000000000000000000000000000000000000000000000000000000000000000000000080000000000000000000000008000000000000000000000000000000000000000000000000000000000000000000000000000000000000000000000001000000000000040000000000200000000000000000400000000000000000100000000000000000000000000000000000000000000000000000000000000000000040000000000",
      "type": "0x2",
      "transactionHash": "0xb693095f6346fb83295d97cf352da52d6a5a1a9307eabb239d9a95c28a2c9a8c",
      "transactionIndex": "0x5",
      "blockHash": "0xc459279b527132283f70c70e4da54dbcd26f40758074917cff774a8686babccd",
      "blockNumber": "0x1a020e0",
      "gasUsed": "0xca40",
      "effectiveGasPrice": "0x1d2b9",
      "from": "0xf8f0f5c8c3fdc3213c7bf6e4140257f8f09d22a9",
      "to": "0x930cbe59d8a8f151a513d3c6b4d22eb61eb3b291",
      "contractAddress": null,
      "l1BaseFeeScalar": "0x44d",
      "l1BlobBaseFee": "0x1",
      "l1BlobBaseFeeScalar": "0xa118b",
      "l1Fee": "0x185b",
      "l1GasPrice": "0xdae",
      "l1GasUsed": "0x640"
    }
  ],
  "libraries": [],
  "pending": [],
  "returns": {},
  "timestamp": 1750311070,
  "chain": 84532,
  "commit": null
}