{
  "transactions": [
    {
      "hash": "0xdae60e81bbda747406c640f217faf6db6ffa73f08c7e14c91a80c59c381550f2",
      "transactionType": "CALL",
      "contractName": null,
      "contractAddress": "0xe9f6229f3785724cd4b3f0eb59609f90e54fe672",
      "function": "grantBridgeRole(address)",
      "arguments": [
        "0x479D045e2112058740fA4227a469D74dBb97b3B3"
      ],
      "transaction": {
        "from": "0xf8f0f5c8c3fdc3213c7bf6e4140257f8f09d22a9",
        "to": "0xe9f6229f3785724cd4b3f0eb59609f90e54fe672",
        "gas": "0xa861",
        "value": "0x0",
        "input": "0xa5e99b8e000000000000000000000000479d045e2112058740fa4227a469d74dbb97b3b3",
        "nonce": "0x13b",
        "chainId": "0x14a34"
      },
      "additionalContracts": [],
      "isFixedGasLimit": false
    },
    {
      "hash": "0x55e1c64a47bf34b5d8f04826743348b0aa989bd4a1109ff46ae249a7426c5ea3",
      "transactionType": "CALL",
      "contractName": null,
      "contractAddress": "0xbd8f61f85ef7e7f68f790b8ff2ea7b899efd1a42",
      "function": "grantBridgeRole(address)",
      "arguments": [
        "0x479D045e2112058740fA4227a469D74dBb97b3B3"
      ],
      "transaction": {
        "from": "0xf8f0f5c8c3fdc3213c7bf6e4140257f8f09d22a9",
        "to": "0xbd8f61f85ef7e7f68f790b8ff2ea7b899efd1a42",
        "gas": "0xa861",
        "value": "0x0",
        "input": "0xa5e99b8e000000000000000000000000479d045e2112058740fa4227a469d74dbb97b3b3",
        "nonce": "0x13c",
        "chainId": "0x14a34"
      },
      "additionalContracts": [],
      "isFixedGasLimit": false
    }
  ],
  "receipts": [
    {
      "status": "0x1",
      "cumulativeGasUsed": "0x2c00d6",
      "logs": [],
      "logsBloom": "0x00000000000000000000000000000000000000000000000000000000000000000000000000000000000000000000000000000000000000000000000000000000000000000000000000000000000000000000000000000000000000000000000000000000000000000000000000000000000000000000000000000000000000000000000000000000000000000000000000000000000000000000000000000000000000000000000000000000000000000000000000000000000000000000000000000000000000000000000000000000000000000000000000000000000000000000000000000000000000000000000000000000000000000000000000000000",
      "type": "0x2",
      "transactionHash": "0xdae60e81bbda747406c640f217faf6db6ffa73f08c7e14c91a80c59c381550f2",
      "transactionIndex": "0xd",
      "blockHash": "0x8f85d0454006c7dc603cf21ff5a1e71474d5ca605cea39df9ae33eed7d1ed882",
      "blockNumber": "0x19fb508",
      "gasUsed": "0x7322",
      "effectiveGasPrice": "0x27fa6",
      "from": "0xf8f0f5c8c3fdc3213c7bf6e4140257f8f09d22a9",
      "to": "0xe9f6229f3785724cd4b3f0eb59609f90e54fe672",
      "contractAddress": null,
      "l1BaseFeeScalar": "0x44d",
      "l1BlobBaseFee": "0x1",
      "l1BlobBaseFeeScalar": "0xa118b",
      "l1Fee": "0x19657",
      "l1GasPrice": "0xe685",
      "l1GasUsed": "0x640"
    },
    {
      "status": "0x1",
      "cumulativeGasUsed": "0x2c73f8",
      "logs": [],
      "logsBloom": "0x00000000000000000000000000000000000000000000000000000000000000000000000000000000000000000000000000000000000000000000000000000000000000000000000000000000000000000000000000000000000000000000000000000000000000000000000000000000000000000000000000000000000000000000000000000000000000000000000000000000000000000000000000000000000000000000000000000000000000000000000000000000000000000000000000000000000000000000000000000000000000000000000000000000000000000000000000000000000000000000000000000000000000000000000000000000",
      "type": "0x2",
      "transactionHash": "0x55e1c64a47bf34b5d8f04826743348b0aa989bd4a1109ff46ae249a7426c5ea3",
      "transactionIndex": "0xe",
      "blockHash": "0x8f85d0454006c7dc603cf21ff5a1e71474d5ca605cea39df9ae33eed7d1ed882",
      "blockNumber": "0x19fb508",
      "gasUsed": "0x7322",
      "effectiveGasPrice": "0x27fa6",
      "from": "0xf8f0f5c8c3fdc3213c7bf6e4140257f8f09d22a9",
      "to": "0xbd8f61f85ef7e7f68f790b8ff2ea7b899efd1a42",
      "contractAddress": null,
      "l1BaseFeeScalar": "0x44d",
      "l1BlobBaseFee": "0x1",
      "l1BlobBaseFeeScalar": "0xa118b",
      "l1Fee": "0x19657",
      "l1GasPrice": "0xe685",
      "l1GasUsed": "0x640"
    }
  ],
  "libraries": [],
  "pending": [],
  "returns": {},
  "timestamp": 1750255854,
  "chain": 84532,
  "commit": null
}