{
  "transactions": [
    {
      "hash": "0xb9cbe1e2403f2ac660be14ccb0adc284af0a0f8f563be9f98b6af65d8e3df30e",
      "transactionType": "CALL",
      "contractName": null,
      "contractAddress": "0xa4ecd98c813fc392962246ca201b39a505787b5f",
      "function": "grantBridgeRole(address)",
      "arguments": [
        "0x76d203F210A4A71DcD109216070A5dd1E24DE065"
      ],
      "transaction": {
        "from": "0xf8f0f5c8c3fdc3213c7bf6e4140257f8f09d22a9",
        "to": "0xa4ecd98c813fc392962246ca201b39a505787b5f",
        "gas": "0x1175b",
        "value": "0x0",
        "input": "0xa5e99b8e00000000000000000000000076d203f210a4a71dcd109216070a5dd1e24de065",
        "nonce": "0xe0",
        "chainId": "0x14a34"
      },
      "additionalContracts": [],
      "isFixedGasLimit": false
    }
  ],
  "receipts": [
    {
      "status": "0x1",
      "cumulativeGasUsed": "0x44807",
      "logs": [
        {
          "address": "0xa4ecd98c813fc392962246ca201b39a505787b5f",
          "topics": [
            "0x2f8788117e7eff1d82e926ec794901d17c78024a50270940304540a733656f0d",
            "0x52ba824bfabc2bcfcdf7f0edbb486ebb05e1836c90e78047efeb949990f72e5f",
            "0x00000000000000000000000076d203f210a4a71dcd109216070a5dd1e24de065",
            "0x000000000000000000000000f8f0f5c8c3fdc3213c7bf6e4140257f8f09d22a9"
          ],
          "data": "0x",
          "blockHash": "0x9114ffeb00d20d0929e8a586c8353893d592fc868b3a11446bc71adbe132df67",
          "blockNumber": "0x19eda6f",
          "blockTimestamp": "0x685113be",
          "transactionHash": "0xb9cbe1e2403f2ac660be14ccb0adc284af0a0f8f563be9f98b6af65d8e3df30e",
          "transactionIndex": "0x2",
          "logIndex": "0x1",
          "removed": false
        }
      ],
      "logsBloom": "0x00040004000000000000000000000000000000000000004000000000000000000000000000000800000004000000000000000000000000000000000000000000000400000000000000000000000000000010000000000000000000000000000000000000008000000000000000000000000000000000000000000000000000000000000000000000008000000000000000000000000020000000000000000000000000000000000000000000000000000000000000000000001000000000400040000000000000000000000000000000000000000000000100000000000000000000000000000000000000000000000000000000000000000000040000000000",
      "type": "0x2",
      "transactionHash": "0xb9cbe1e2403f2ac660be14ccb0adc284af0a0f8f563be9f98b6af65d8e3df30e",
      "transactionIndex": "0x2",
      "blockHash": "0x9114ffeb00d20d0929e8a586c8353893d592fc868b3a11446bc71adbe132df67",
      "blockNumber": "0x19eda6f",
      "gasUsed": "0xca40",
      "effectiveGasPrice": "0x30e02",
      "from": "0xf8f0f5c8c3fdc3213c7bf6e4140257f8f09d22a9",
      "to": "0xa4ecd98c813fc392962246ca201b39a505787b5f",
      "contractAddress": null,
      "l1BaseFeeScalar": "0x44d",
      "l1BlobBaseFee": "0x1",
      "l1BlobBaseFeeScalar": "0xa118b",
      "l1Fee": "0x712411de",
      "l1GasPrice": "0x4039e8fb",
      "l1GasUsed": "0x640"
    }
  ],
  "libraries": [],
  "pending": [],
  "returns": {},
  "timestamp": 1750143934,
  "chain": 84532,
  "commit": null
}