{
  "transactions": [
    {
      "hash": "0x5a0a6f70631f99ab848b692c67c20311559b87f2dc604f432c60d432eeca27ce",
      "transactionType": "CALL",
      "contractName": null,
      "contractAddress": "0x8b78dffd052f43d8fe8a37fc3b0aec663f0286fa",
      "function": "grantBridgeRole(address)",
      "arguments": [
        "0x6756A2E5D1B78bFD6975e735da07744dD01b1592"
      ],
      "transaction": {
        "from": "0xf8f0f5c8c3fdc3213c7bf6e4140257f8f09d22a9",
        "to": "0x8b78dffd052f43d8fe8a37fc3b0aec663f0286fa",
        "gas": "0x1175b",
        "value": "0x0",
        "input": "0xa5e99b8e0000000000000000000000006756a2e5d1b78bfd6975e735da07744dd01b1592",
        "nonce": "0xd5",
        "chainId": "0x14a34"
      },
      "additionalContracts": [],
      "isFixedGasLimit": false
    }
  ],
  "receipts": [
    {
      "status": "0x1",
      "cumulativeGasUsed": "0x730e2",
      "logs": [
        {
          "address": "0x8b78dffd052f43d8fe8a37fc3b0aec663f0286fa",
          "topics": [
            "0x2f8788117e7eff1d82e926ec794901d17c78024a50270940304540a733656f0d",
            "0x52ba824bfabc2bcfcdf7f0edbb486ebb05e1836c90e78047efeb949990f72e5f",
            "0x0000000000000000000000006756a2e5d1b78bfd6975e735da07744dd01b1592",
            "0x000000000000000000000000f8f0f5c8c3fdc3213c7bf6e4140257f8f09d22a9"
          ],
          "data": "0x",
          "blockHash": "0xf8e50a64b4c69d06b70bf3fcbe028d6a183cd58d79144bdac4c756e8b5a7e5dd",
          "blockNumber": "0x19ed984",
          "blockTimestamp": "0x685111e8",
          "transactionHash": "0x5a0a6f70631f99ab848b692c67c20311559b87f2dc604f432c60d432eeca27ce",
          "transactionIndex": "0x3",
          "logIndex": "0xe",
          "removed": false
        }
      ],
      "logsBloom": "0x00000004000000000000000000000000000000000000000000000000000000000000000000000800800004000000000000000000000000000000000000000000000400000000000002000000000000000000000000000000000000000000000000000000000000000000000000000100000000000000000000000000000000000000000000000000008000000000000000000000000000000000000000000000000000000000000000000000000000000000000000000000001000000000000040000000000000000000000000000000000000000000000100000000000000400000000000000000000000000020000000000000000200000000040000000000",
      "type": "0x2",
      "transactionHash": "0x5a0a6f70631f99ab848b692c67c20311559b87f2dc604f432c60d432eeca27ce",
      "transactionIndex": "0x3",
      "blockHash": "0xf8e50a64b4c69d06b70bf3fcbe028d6a183cd58d79144bdac4c756e8b5a7e5dd",
      "blockNumber": "0x19ed984",
      "gasUsed": "0xca40",
      "effectiveGasPrice": "0x3b94a",
      "from": "0xf8f0f5c8c3fdc3213c7bf6e4140257f8f09d22a9",
      "to": "0x8b78dffd052f43d8fe8a37fc3b0aec663f0286fa",
      "contractAddress": null,
      "l1BaseFeeScalar": "0x44d",
      "l1BlobBaseFee": "0x1",
      "l1BlobBaseFeeScalar": "0xa118b",
      "l1Fee": "0x78cadaec",
      "l1GasPrice": "0x4491d870",
      "l1GasUsed": "0x640"
    }
  ],
  "libraries": [],
  "pending": [],
  "returns": {},
  "timestamp": 1750143462,
  "chain": 84532,
  "commit": null
}