{
  "transactions": [
    {
      "hash": "0x734d249082e91f4afb0a45d9cc493771742c9ca6abb77c09eefa1da98bc3c733",
      "transactionType": "CALL",
      "contractName": null,
      "contractAddress": "0x629c3ad44e7fcddc7ecf42c10d2552788703eeb1",
      "function": "grantBridgeRole(address)",
      "arguments": [
        "0xCa90F24e6fabD69a970f748DC4b13d3afD18AfAf"
      ],
      "transaction": {
        "from": "0xf8f0f5c8c3fdc3213c7bf6e4140257f8f09d22a9",
        "to": "0x629c3ad44e7fcddc7ecf42c10d2552788703eeb1",
        "gas": "0x1175b",
        "value": "0x0",
        "input": "0xa5e99b8e000000000000000000000000ca90f24e6fabd69a970f748dc4b13d3afd18afaf",
        "nonce": "0x191",
        "chainId": "0x14a34"
      },
      "additionalContracts": [],
      "isFixedGasLimit": false
    },
    {
      "hash": "0x1f3ffdff86a914c603ec7fd1668037aeb6131652a135a83fb1e61765dfa1e06f",
      "transactionType": "CALL",
      "contractName": null,
      "contractAddress": "0x4516f5157078ef55e3e60d060d6918df0ff46ceb",
      "function": "grantBridgeRole(address)",
      "arguments": [
        "0xCa90F24e6fabD69a970f748DC4b13d3afD18AfAf"
      ],
      "transaction": {
        "from": "0xf8f0f5c8c3fdc3213c7bf6e4140257f8f09d22a9",
        "to": "0x4516f5157078ef55e3e60d060d6918df0ff46ceb",
        "gas": "0x1175b",
        "value": "0x0",
        "input": "0xa5e99b8e000000000000000000000000ca90f24e6fabd69a970f748dc4b13d3afd18afaf",
        "nonce": "0x192",
        "chainId": "0x14a34"
      },
      "additionalContracts": [],
      "isFixedGasLimit": false
    }
  ],
  "receipts": [
    {
      "status": "0x1",
      "cumulativeGasUsed": "0x7925dc",
      "logs": [
        {
          "address": "0x629c3ad44e7fcddc7ecf42c10d2552788703eeb1",
          "topics": [
            "0x2f8788117e7eff1d82e926ec794901d17c78024a50270940304540a733656f0d",
            "0x52ba824bfabc2bcfcdf7f0edbb486ebb05e1836c90e78047efeb949990f72e5f",
            "0x000000000000000000000000ca90f24e6fabd69a970f748dc4b13d3afd18afaf",
            "0x000000000000000000000000f8f0f5c8c3fdc3213c7bf6e4140257f8f09d22a9"
          ],
          "data": "0x",
          "blockHash": "0x29af1cd35e08b2002f58e54d31d5327f8d742e9076f6428d5467d5521a1e9802",
          "blockNumber": "0x1a056c6",
          "blockTimestamp": "0x68540c6c",
          "transactionHash": "0x734d249082e91f4afb0a45d9cc493771742c9ca6abb77c09eefa1da98bc3c733",
          "transactionIndex": "0x18",
          "logIndex": "0x142",
          "removed": false
        }
      ],
      "logsBloom": "0x00000004000000000000000000000000010000000000000000000000000000000000000000002800000004000000000000000000000000000000000000000000000400000000000000000000000080000000000000000000000000000000000000000000000000000000000000000000000000000000000000000000000000000000000000000000048000000000000000000000000000000000000000000000000000000000000000000000000000000000000000000000001000000000000040000001000000000000000000000000000000000000000100000000000000000000000000000000000000000000000002000000000000000000040000000000",
      "type": "0x2",
      "transactionHash": "0x734d249082e91f4afb0a45d9cc493771742c9ca6abb77c09eefa1da98bc3c733",
      "transactionIndex": "0x18",
      "blockHash": "0x29af1cd35e08b2002f58e54d31d5327f8d742e9076f6428d5467d5521a1e9802",
      "blockNumber": "0x1a056c6",
      "gasUsed": "0xca40",
      "effectiveGasPrice": "0x248",
      "from": "0xf8f0f5c8c3fdc3213c7bf6e4140257f8f09d22a9",
      "to": "0x629c3ad44e7fcddc7ecf42c10d2552788703eeb1",
      "contractAddress": null,
      "l1BaseFeeScalar": "0x44d",
      "l1BlobBaseFee": "0x1",
      "l1BlobBaseFeeScalar": "0xa118b",
      "l1Fee": "0x58",
      "l1GasPrice": "0xd",
      "l1GasUsed": "0x640"
    },
    {
      "status": "0x1",
      "cumulativeGasUsed": "0x79f01c",
      "logs": [
        {
          "address": "0x4516f5157078ef55e3e60d060d6918df0ff46ceb",
          "topics": [
            "0x2f8788117e7eff1d82e926ec794901d17c78024a50270940304540a733656f0d",
            "0x52ba824bfabc2bcfcdf7f0edbb486ebb05e1836c90e78047efeb949990f72e5f",
            "0x000000000000000000000000ca90f24e6fabd69a970f748dc4b13d3afd18afaf",
            "0x000000000000000000000000f8f0f5c8c3fdc3213c7bf6e4140257f8f09d22a9"
          ],
          "data": "0x",
          "blockHash": "0x29af1cd35e08b2002f58e54d31d5327f8d742e9076f6428d5467d5521a1e9802",
          "blockNumber": "0x1a056c6",
          "blockTimestamp": "0x68540c6c",
          "transactionHash": "0x1f3ffdff86a914c603ec7fd1668037aeb6131652a135a83fb1e61765dfa1e06f",
          "transactionIndex": "0x19",
          "logIndex": "0x143",
          "removed": false
        }
      ],
      "logsBloom": "0x00000004000000000000000000000000000000000200000000000000000000000000000000000800000004000000000000000000000000000000000000000000000400000000000000000000000000000000000000000010000000000000000000000000000000000000000000000000000000000000000000000000000000000000000000000000048000000000000000000000000000000000000000000000000000000000000000000000000000000000000000000000001000000000000040000001000000000010000000000000000000000000000100000000000000000000000000000000000000000000000002000000000000000000040000000000",
      "type": "0x2",
      "transactionHash": "0x1f3ffdff86a914c603ec7fd1668037aeb6131652a135a83fb1e61765dfa1e06f",
      "transactionIndex": "0x19",
      "blockHash": "0x29af1cd35e08b2002f58e54d31d5327f8d742e9076f6428d5467d5521a1e9802",
      "blockNumber": "0x1a056c6",
      "gasUsed": "0xca40",
      "effectiveGasPrice": "0x248",
      "from": "0xf8f0f5c8c3fdc3213c7bf6e4140257f8f09d22a9",
      "to": "0x4516f5157078ef55e3e60d060d6918df0ff46ceb",
      "contractAddress": null,
      "l1BaseFeeScalar": "0x44d",
      "l1BlobBaseFee": "0x1",
      "l1BlobBaseFeeScalar": "0xa118b",
      "l1Fee": "0x58",
      "l1GasPrice": "0xd",
      "l1GasUsed": "0x640"
    }
  ],
  "libraries": [],
  "pending": [],
  "returns": {},
  "timestamp": 1750338667,
  "chain": 84532,
  "commit": null
}