{
  "transactions": [
    {
      "hash": "0x15194fe3bce0605b127e67855fa3a4bed1d75e23201ce641c565dd9584f669a9",
      "transactionType": "CALL",
      "contractName": null,
      "contractAddress": "0x70721d9695a226b795a368ee2052245953558829",
      "function": "grantBridgeRole(address)",
      "arguments": [
        "0xbB2b42FDCf044E9CD87FFDF52Bff045E30bdd81b"
      ],
      "transaction": {
        "from": "0xf8f0f5c8c3fdc3213c7bf6e4140257f8f09d22a9",
        "to": "0x70721d9695a226b795a368ee2052245953558829",
        "gas": "0x1175b",
        "value": "0x0",
        "input": "0xa5e99b8e000000000000000000000000bb2b42fdcf044e9cd87ffdf52bff045e30bdd81b",
        "nonce": "0x112",
        "chainId": "0x14a34"
      },
      "additionalContracts": [],
      "isFixedGasLimit": false
    }
  ],
  "receipts": [
    {
      "status": "0x1",
      "cumulativeGasUsed": "0x672f8",
      "logs": [
        {
          "address": "0x70721d9695a226b795a368ee2052245953558829",
          "topics": [
            "0x2f8788117e7eff1d82e926ec794901d17c78024a50270940304540a733656f0d",
            "0x52ba824bfabc2bcfcdf7f0edbb486ebb05e1836c90e78047efeb949990f72e5f",
            "0x000000000000000000000000bb2b42fdcf044e9cd87ffdf52bff045e30bdd81b",
            "0x000000000000000000000000f8f0f5c8c3fdc3213c7bf6e4140257f8f09d22a9"
          ],
          "data": "0x",
          "blockHash": "0x30a54cc848f6f71af2cc681d608dc0a8f19087e086437f88e862b6166c4df688",
          "blockNumber": "0x19f9ef5",
          "blockTimestamp": "0x68529cca",
          "transactionHash": "0x15194fe3bce0605b127e67855fa3a4bed1d75e23201ce641c565dd9584f669a9",
          "transactionIndex": "0x3",
          "logIndex": "0x4",
          "removed": false
        }
      ],
      "logsBloom": "0x00000004000000000000000000000000000000000000000000000010000000000000000000000800000004000000000000000000000000000000000000000000080400000000000000000000000000000000000000000000000000000000000000000000000000000000000000000000000000000000000000000000000000000000000000000000008000000000000000000000000000000000000000000000000000000000000000000000000000002000000000000000001000000000000040000000000000000000000400000000000000000000000100000000000000000000000000000040000000000000000000000000000000000000040000000001",
      "type": "0x2",
      "transactionHash": "0x15194fe3bce0605b127e67855fa3a4bed1d75e23201ce641c565dd9584f669a9",
      "transactionIndex": "0x3",
      "blockHash": "0x30a54cc848f6f71af2cc681d608dc0a8f19087e086437f88e862b6166c4df688",
      "blockNumber": "0x19f9ef5",
      "gasUsed": "0xca40",
      "effectiveGasPrice": "0x891",
      "from": "0xf8f0f5c8c3fdc3213c7bf6e4140257f8f09d22a9",
      "to": "0x70721d9695a226b795a368ee2052245953558829",
      "contractAddress": null,
      "l1BaseFeeScalar": "0x44d",
      "l1BlobBaseFee": "0x1",
      "l1BlobBaseFeeScalar": "0xa118b",
      "l1Fee": "0x1db58",
      "l1GasPrice": "0x10db1",
      "l1GasUsed": "0x640"
    }
  ],
  "libraries": [],
  "pending": [],
  "returns": {},
  "timestamp": 1750244552,
  "chain": 84532,
  "commit": null
}