{
  "transactions": [
    {
      "hash": "0x2da4ac27ebfd2d2f1f231a9a07fdd2d054b7b278d2320648318f0907f6efcf23",
      "transactionType": "CALL",
      "contractName": null,
      "contractAddress": "0x9e954fa1657f87646ee34cd6866b764dd5834768",
      "function": "grantBridgeRole(address)",
      "arguments": [
        "0xA4FBa5448Fe31d13611A149A4258e148B39aEF45"
      ],
      "transaction": {
        "from": "0xf8f0f5c8c3fdc3213c7bf6e4140257f8f09d22a9",
        "to": "0x9e954fa1657f87646ee34cd6866b764dd5834768",
        "gas": "0x1175b",
        "value": "0x0",
        "input": "0xa5e99b8e000000000000000000000000a4fba5448fe31d13611a149a4258e148b39aef45",
        "nonce": "0x170",
        "chainId": "0x14a34"
      },
      "additionalContracts": [],
      "isFixedGasLimit": false
    },
    {
      "hash": "0x0cd78f87713eee3df6c2be28309403fba287a4163cc50ce8a3ea7bbc0ac33538",
      "transactionType": "CALL",
      "contractName": null,
      "contractAddress": "0x470347615516e929d1701a8300fbe255695ad3d2",
      "function": "grantBridgeRole(address)",
      "arguments": [
        "0xA4FBa5448Fe31d13611A149A4258e148B39aEF45"
      ],
      "transaction": {
        "from": "0xf8f0f5c8c3fdc3213c7bf6e4140257f8f09d22a9",
        "to": "0x470347615516e929d1701a8300fbe255695ad3d2",
        "gas": "0x1175b",
        "value": "0x0",
        "input": "0xa5e99b8e000000000000000000000000a4fba5448fe31d13611a149a4258e148b39aef45",
        "nonce": "0x171",
        "chainId": "0x14a34"
      },
      "additionalContracts": [],
      "isFixedGasLimit": false
    }
  ],
  "receipts": [
    {
      "status": "0x1",
      "cumulativeGasUsed": "0x7dfb78",
      "logs": [
        {
          "address": "0x9e954fa1657f87646ee34cd6866b764dd5834768",
          "topics": [
            "0x2f8788117e7eff1d82e926ec794901d17c78024a50270940304540a733656f0d",
            "0x52ba824bfabc2bcfcdf7f0edbb486ebb05e1836c90e78047efeb949990f72e5f",
            "0x000000000000000000000000a4fba5448fe31d13611a149a4258e148b39aef45",
            "0x000000000000000000000000f8f0f5c8c3fdc3213c7bf6e4140257f8f09d22a9"
          ],
          "data": "0x",
          "blockHash": "0x9aa240954e595bc852db88958ba80a2553b40fe3e5ee93dd04d4ba71c7012b68",
          "blockNumber": "0x1a030be",
          "blockTimestamp": "0x6853c05c",
          "transactionHash": "0x2da4ac27ebfd2d2f1f231a9a07fdd2d054b7b278d2320648318f0907f6efcf23",
          "transactionIndex": "0x1c",
          "logIndex": "0xce",
          "removed": false
        }
      ],
      "logsBloom": "0x00000004000000000000000000000000000000000000000000000000001000000000000000000800000004000000000000000000000000000000000020000000000400000000000000000000000000000000000000000000000000000000000000000000000000000000000000000000000000000000000000001000000000000000000000000000008000000000000000000000000000000000000000000000000000000000000000000000000000000000000000000000001000000000000040000000000000000000000000000000002000020000000100000000000000000000000000000000000000000000000000000000000000000000040020000000",
      "type": "0x2",
      "transactionHash": "0x2da4ac27ebfd2d2f1f231a9a07fdd2d054b7b278d2320648318f0907f6efcf23",
      "transactionIndex": "0x1c",
      "blockHash": "0x9aa240954e595bc852db88958ba80a2553b40fe3e5ee93dd04d4ba71c7012b68",
      "blockNumber": "0x1a030be",
      "gasUsed": "0xca40",
      "effectiveGasPrice": "0xed199",
      "from": "0xf8f0f5c8c3fdc3213c7bf6e4140257f8f09d22a9",
      "to": "0x9e954fa1657f87646ee34cd6866b764dd5834768",
      "contractAddress": null,
      "l1BaseFeeScalar": "0x44d",
      "l1BlobBaseFee": "0x1",
      "l1BlobBaseFeeScalar": "0xa118b",
      "l1Fee": "0x11fa",
      "l1GasPrice": "0xa0f",
      "l1GasUsed": "0x640"
    },
    {
      "status": "0x1",
      "cumulativeGasUsed": "0x7ec5b8",
      "logs": [
        {
          "address": "0x470347615516e929d1701a8300fbe255695ad3d2",
          "topics": [
            "0x2f8788117e7eff1d82e926ec794901d17c78024a50270940304540a733656f0d",
            "0x52ba824bfabc2bcfcdf7f0edbb486ebb05e1836c90e78047efeb949990f72e5f",
            "0x000000000000000000000000a4fba5448fe31d13611a149a4258e148b39aef45",
            "0x000000000000000000000000f8f0f5c8c3fdc3213c7bf6e4140257f8f09d22a9"
          ],
          "data": "0x",
          "blockHash": "0x9aa240954e595bc852db88958ba80a2553b40fe3e5ee93dd04d4ba71c7012b68",
          "blockNumber": "0x1a030be",
          "blockTimestamp": "0x6853c05c",
          "transactionHash": "0x0cd78f87713eee3df6c2be28309403fba287a4163cc50ce8a3ea7bbc0ac33538",
          "transactionIndex": "0x1d",
          "logIndex": "0xcf",
          "removed": false
        }
      ],
      "logsBloom": "0x00000004000000000000000000000000000000000000000000000000001000000000000000000800000004000000000000000000000000000000000000000000000400000000000000000000000000000000080000000000000000000000000000000000000000000000000000000000000000000000000000000000020000000000000000000000008000000000000000000000800000000000000000000000000000000000000000000000000000000000000000000000001000000000000040000000000000000000000000000000002000020000000100000000000000000000000000000000000000000000000000000000000000000000040000000000",
      "type": "0x2",
      "transactionHash": "0x0cd78f87713eee3df6c2be28309403fba287a4163cc50ce8a3ea7bbc0ac33538",
      "transactionIndex": "0x1d",
      "blockHash": "0x9aa240954e595bc852db88958ba80a2553b40fe3e5ee93dd04d4ba71c7012b68",
      "blockNumber": "0x1a030be",
      "gasUsed": "0xca40",
      "effectiveGasPrice": "0xed199",
      "from": "0xf8f0f5c8c3fdc3213c7bf6e4140257f8f09d22a9",
      "to": "0x470347615516e929d1701a8300fbe255695ad3d2",
      "contractAddress": null,
      "l1BaseFeeScalar": "0x44d",
      "l1BlobBaseFee": "0x1",
      "l1BlobBaseFeeScalar": "0xa118b",
      "l1Fee": "0x11fa",
      "l1GasPrice": "0xa0f",
      "l1GasUsed": "0x640"
    }
  ],
  "libraries": [],
  "pending": [],
  "returns": {},
  "timestamp": 1750319195,
  "chain": 84532,
  "commit": null
}