{
  "transactions": [
    {
      "hash": "0x52bed8e83063f52fd829996b0689d0902165d6939945f3a84f3c237e72f36602",
      "transactionType": "CALL",
      "contractName": null,
      "contractAddress": "0x9fbb3be4518ffaaaec4bce688431e87fccecca7d",
      "function": "grantBridgeRole(address)",
      "arguments": [
        "0x123D067627f414752dbAb21223aA9E9c5D818AF1"
      ],
      "transaction": {
        "from": "0xf8f0f5c8c3fdc3213c7bf6e4140257f8f09d22a9",
        "to": "0x9fbb3be4518ffaaaec4bce688431e87fccecca7d",
        "gas": "0x1175b",
        "value": "0x0",
        "input": "0xa5e99b8e000000000000000000000000123d067627f414752dbab21223aa9e9c5d818af1",
        "nonce": "0x10d",
        "chainId": "0x14a34"
      },
      "additionalContracts": [],
      "isFixedGasLimit": false
    }
  ],
  "receipts": [
    {
      "status": "0x1",
      "cumulativeGasUsed": "0x9c65c6",
      "logs": [
        {
          "address": "0x9fbb3be4518ffaaaec4bce688431e87fccecca7d",
          "topics": [
            "0x2f8788117e7eff1d82e926ec794901d17c78024a50270940304540a733656f0d",
            "0x52ba824bfabc2bcfcdf7f0edbb486ebb05e1836c90e78047efeb949990f72e5f",
            "0x000000000000000000000000123d067627f414752dbab21223aa9e9c5d818af1",
            "0x000000000000000000000000f8f0f5c8c3fdc3213c7bf6e4140257f8f09d22a9"
          ],
          "data": "0x",
          "blockHash": "0x36c649b55114d1dedc40bbe3174375c6c297895993637aa0facffbef4dcec8bf",
          "blockNumber": "0x19f95e4",
          "blockTimestamp": "0x68528aa8",
          "transactionHash": "0x52bed8e83063f52fd829996b0689d0902165d6939945f3a84f3c237e72f36602",
          "transactionIndex": "0x2e",
          "logIndex": "0x12b",
          "removed": false
        }
      ],
      "logsBloom": "0x00002004000000000000000000000000000000000000000000000000000000000000000000000800000004000000000000000000000000008000000000000000000400000000000000000000000000000000000000000000000000000000000000000000000000000000000000000000000000000000000000000000000000000000000000000000008000000000000000000000004000000000000000000000000000000000080000000000000000000000000000000000001000000000000040000000000000000000000000000000000000000000000100000000000000000000000000000000000000000000000000000000000000000000440008000000",
      "type": "0x2",
      "transactionHash": "0x52bed8e83063f52fd829996b0689d0902165d6939945f3a84f3c237e72f36602",
      "transactionIndex": "0x2e",
      "blockHash": "0x36c649b55114d1dedc40bbe3174375c6c297895993637aa0facffbef4dcec8bf",
      "blockNumber": "0x19f95e4",
      "gasUsed": "0xca40",
      "effectiveGasPrice": "0x3414d",
      "from": "0xf8f0f5c8c3fdc3213c7bf6e4140257f8f09d22a9",
      "to": "0x9fbb3be4518ffaaaec4bce688431e87fccecca7d",
      "contractAddress": null,
      "l1BaseFeeScalar": "0x44d",
      "l1BlobBaseFee": "0x1",
      "l1BlobBaseFeeScalar": "0xa118b",
      "l1Fee": "0xf4e90",
      "l1GasPrice": "0x8b04a",
      "l1GasUsed": "0x640"
    }
  ],
  "libraries": [],
  "pending": [],
  "returns": {},
  "timestamp": 1750239912,
  "chain": 84532,
  "commit": null
}