{
  "transactions": [
    {
      "hash": "0xc7f482074b0eb347ec4d82232c61a98e7e3e0056dadbc02ed2e599f94728db83",
      "transactionType": "CALL",
      "contractName": null,
      "contractAddress": "0x3c2f9e01ab3d47bb8460254c87a58cc8fe72e0f2",
      "function": "grantBridgeRole(address)",
      "arguments": [
        "0xe46EA0B888AF090b4ad2EB102DA3D057b95Fe500"
      ],
      "transaction": {
        "from": "0xf8f0f5c8c3fdc3213c7bf6e4140257f8f09d22a9",
        "to": "0x3c2f9e01ab3d47bb8460254c87a58cc8fe72e0f2",
        "gas": "0x1174a",
        "value": "0x0",
        "input": "0xa5e99b8e000000000000000000000000e46ea0b888af090b4ad2eb102da3d057b95fe500",
        "nonce": "0x11c",
        "chainId": "0x14a34"
      },
      "additionalContracts": [],
      "isFixedGasLimit": false
    }
  ],
  "receipts": [
    {
      "status": "0x1",
      "cumulativeGasUsed": "0x13e2b03",
      "logs": [
        {
          "address": "0x3c2f9e01ab3d47bb8460254c87a58cc8fe72e0f2",
          "topics": [
            "0x2f8788117e7eff1d82e926ec794901d17c78024a50270940304540a733656f0d",
            "0x52ba824bfabc2bcfcdf7f0edbb486ebb05e1836c90e78047efeb949990f72e5f",
            "0x000000000000000000000000e46ea0b888af090b4ad2eb102da3d057b95fe500",
            "0x000000000000000000000000f8f0f5c8c3fdc3213c7bf6e4140257f8f09d22a9"
          ],
          "data": "0x",
          "blockHash": "0x58872a0ab585d73092403b7a7ef4d389de95aa6a8392609757a2ab7ea2c1b19e",
          "blockNumber": "0x19fa3aa",
          "blockTimestamp": "0x6852a634",
          "transactionHash": "0xc7f482074b0eb347ec4d82232c61a98e7e3e0056dadbc02ed2e599f94728db83",
          "transactionIndex": "0x2a",
          "logIndex": "0x2e8",
          "removed": false
        }
      ],
      "logsBloom": "0x81000004000000000000000000000000000000000000000000000000000000000000000000000800000004000000000000000000000000000000000000000000000400000000000000000000000000000000000000000000000000000000000000000100000000000000000000000000000000000000000000000000000000020000000000000000008000000000000000000000000000000000000000000000000000000000000000000000000000000000000000000000001000000000000040000000000000000000000000000001000000000000000100000000000000000000000000000000000000000000000000000000000000000000050000000000",
      "type": "0x2",
      "transactionHash": "0xc7f482074b0eb347ec4d82232c61a98e7e3e0056dadbc02ed2e599f94728db83",
      "transactionIndex": "0x2a",
      "blockHash": "0x58872a0ab585d73092403b7a7ef4d389de95aa6a8392609757a2ab7ea2c1b19e",
      "blockNumber": "0x19fa3aa",
      "gasUsed": "0xca34",
      "effectiveGasPrice": "0x1b1e5",
      "from": "0xf8f0f5c8c3fdc3213c7bf6e4140257f8f09d22a9",
      "to": "0x3c2f9e01ab3d47bb8460254c87a58cc8fe72e0f2",
      "contractAddress": null,
      "l1BaseFeeScalar": "0x44d",
      "l1BlobBaseFee": "0x1",
      "l1BlobBaseFeeScalar": "0xa118b",
      "l1Fee": "0x1eed1",
      "l1GasPrice": "0x118bf",
      "l1GasUsed": "0x640"
    }
  ],
  "libraries": [],
  "pending": [],
  "returns": {},
  "timestamp": 1750246963,
  "chain": 84532,
  "commit": null
}