{
  "transactions": [
    {
      "hash": "0x9ecd0303e41d8087f6f4bf9d6781c14c394aa70a58c04a4eec5f85b182bd7c09",
      "transactionType": "CALL",
      "contractName": null,
      "contractAddress": "0x516f5e0fcd967e80bc7fce79568312dfdac5cc00",
      "function": "grantBridgeRole(address)",
      "arguments": [
        "0x2005AaDDFa9c0482059e622639848D986fF455E4"
      ],
      "transaction": {
        "from": "0xf8f0f5c8c3fdc3213c7bf6e4140257f8f09d22a9",
        "to": "0x516f5e0fcd967e80bc7fce79568312dfdac5cc00",
        "gas": "0x1175b",
        "value": "0x0",
        "input": "0xa5e99b8e0000000000000000000000002005aaddfa9c0482059e622639848d986ff455e4",
        "nonce": "0x167",
        "chainId": "0x14a34"
      },
      "additionalContracts": [],
      "isFixedGasLimit": false
    },
    {
      "hash": "0x843ec931a7c1b3e4219c77df85154506b1b4bf8c936068aa34a01ee89c81ade8",
      "transactionType": "CALL",
      "contractName": null,
      "contractAddress": "0x031d3970b75d786f87237da9f134201552a58e60",
      "function": "grantBridgeRole(address)",
      "arguments": [
        "0x2005AaDDFa9c0482059e622639848D986fF455E4"
      ],
      "transaction": {
        "from": "0xf8f0f5c8c3fdc3213c7bf6e4140257f8f09d22a9",
        "to": "0x031d3970b75d786f87237da9f134201552a58e60",
        "gas": "0x1175b",
        "value": "0x0",
        "input": "0xa5e99b8e0000000000000000000000002005aaddfa9c0482059e622639848d986ff455e4",
        "nonce": "0x168",
        "chainId": "0x14a34"
      },
      "additionalContracts": [],
      "isFixedGasLimit": false
    }
  ],
  "receipts": [
    {
      "status": "0x1",
      "cumulativeGasUsed": "0x17e68",
      "logs": [
        {
          "address": "0x516f5e0fcd967e80bc7fce79568312dfdac5cc00",
          "topics": [
            "0x2f8788117e7eff1d82e926ec794901d17c78024a50270940304540a733656f0d",
            "0x52ba824bfabc2bcfcdf7f0edbb486ebb05e1836c90e78047efeb949990f72e5f",
            "0x0000000000000000000000002005aaddfa9c0482059e622639848d986ff455e4",
            "0x000000000000000000000000f8f0f5c8c3fdc3213c7bf6e4140257f8f09d22a9"
          ],
          "data": "0x",
          "blockHash": "0xd27321713f14b1ab726ab811ff01667194c8ce028fd1e98dc9a6d420c499961c",
          "blockNumber": "0x1a028f2",
          "blockTimestamp": "0x6853b0c4",
          "transactionHash": "0x9ecd0303e41d8087f6f4bf9d6781c14c394aa70a58c04a4eec5f85b182bd7c09",
          "transactionIndex": "0x1",
          "logIndex": "0x0",
          "removed": false
        }
      ],
      "logsBloom": "0x00000004000000000000000000000000000000000000000000000000000000000000000000000800000004000000000000000000040000000000000000000000000400200000000000000000000000000000000000000000000000000000000000000000000000000000000000000000000000000080000000004000000000000000000000000000008000000000000000000000000000000000000000000000000000000000000000000000000000000000000000000000001000000000000040000000000000000000000000000000000000000000000100000000000000000800000000000000000000000000000000000002000000000000040000000000",
      "type": "0x2",
      "transactionHash": "0x9ecd0303e41d8087f6f4bf9d6781c14c394aa70a58c04a4eec5f85b182bd7c09",
      "transactionIndex": "0x1",
      "blockHash": "0xd27321713f14b1ab726ab811ff01667194c8ce028fd1e98dc9a6d420c499961c",
      "blockNumber": "0x1a028f2",
      "gasUsed": "0xca40",
      "effectiveGasPrice": "0xf42dc",
      "from": "0xf8f0f5c8c3fdc3213c7bf6e4140257f8f09d22a9",
      "to": "0x516f5e0fcd967e80bc7fce79568312dfdac5cc00",
      "contractAddress": null,
      "l1BaseFeeScalar": "0x44d",
      "l1BlobBaseFee": "0x1",
      "l1BlobBaseFeeScalar": "0xa118b",
      "l1Fee": "0x2b43",
      "l1GasPrice": "0x186a",
      "l1GasUsed": "0x640"
    },
    {
      "status": "0x1",
      "cumulativeGasUsed": "0x248a8",
      "logs": [
        {
          "address": "0x031d3970b75d786f87237da9f134201552a58e60",
          "topics": [
            "0x2f8788117e7eff1d82e926ec794901d17c78024a50270940304540a733656f0d",
            "0x52ba824bfabc2bcfcdf7f0edbb486ebb05e1836c90e78047efeb949990f72e5f",
            "0x0000000000000000000000002005aaddfa9c0482059e622639848d986ff455e4",
            "0x000000000000000000000000f8f0f5c8c3fdc3213c7bf6e4140257f8f09d22a9"
          ],
          "data": "0x",
          "blockHash": "0xd27321713f14b1ab726ab811ff01667194c8ce028fd1e98dc9a6d420c499961c",
          "blockNumber": "0x1a028f2",
          "blockTimestamp": "0x6853b0c4",
          "transactionHash": "0x843ec931a7c1b3e4219c77df85154506b1b4bf8c936068aa34a01ee89c81ade8",
          "transactionIndex": "0x2",
          "logIndex": "0x1",
          "removed": false
        }
      ],
      "logsBloom": "0x00000004000000000000000000000000000000000000080000000000000000000000000000000800000004000000000000000000040000000000000000000000000400000000000000000000000000000000000000000000000000000000000000000000000000000000000000000000000000000080000010000000000000000000000000000000008000000000000000000000000000000000000000000000000200000000000000000000000000000000000000000000001000000000000040000000000000000000000000000000000000000000000100000000000000000800000000000000000000000000000000000000000000000000040000000000",
      "type": "0x2",
      "transactionHash": "0x843ec931a7c1b3e4219c77df85154506b1b4bf8c936068aa34a01ee89c81ade8",
      "transactionIndex": "0x2",
      "blockHash": "0xd27321713f14b1ab726ab811ff01667194c8ce028fd1e98dc9a6d420c499961c",
      "blockNumber": "0x1a028f2",
      "gasUsed": "0xca40",
      "effectiveGasPrice": "0xf42dc",
      "from": "0xf8f0f5c8c3fdc3213c7bf6e4140257f8f09d22a9",
      "to": "0x031d3970b75d786f87237da9f134201552a58e60",
      "contractAddress": null,
      "l1BaseFeeScalar": "0x44d",
      "l1BlobBaseFee": "0x1",
      "l1BlobBaseFeeScalar": "0xa118b",
      "l1Fee": "0x2b43",
      "l1GasPrice": "0x186a",
      "l1GasUsed": "0x640"
    }
  ],
  "libraries": [],
  "pending": [],
  "returns": {},
  "timestamp": 1750315202,
  "chain": 84532,
  "commit": null
}