{
  "transactions": [
    {
      "hash": "0xd5e977e250fb7b3737b576974739cbfc2c4454b4ee01c97067a919a3bf3f78d2",
      "transactionType": "CALL",
      "contractName": null,
      "contractAddress": "0xe14176eb1a2a31a77ac122f8c5aa2e102e27d3c5",
      "function": "grantBridgeRole(address)",
      "arguments": [
        "0xf821eAbB1eD527739013C21e1E597065F7b70ae1"
      ],
      "transaction": {
        "from": "0xf8f0f5c8c3fdc3213c7bf6e4140257f8f09d22a9",
        "to": "0xe14176eb1a2a31a77ac122f8c5aa2e102e27d3c5",
        "gas": "0x1175b",
        "value": "0x0",
        "input": "0xa5e99b8e000000000000000000000000f821eabb1ed527739013c21e1e597065f7b70ae1",
        "nonce": "0x17d",
        "chainId": "0x14a34"
      },
      "additionalContracts": [],
      "isFixedGasLimit": false
    },
    {
      "hash": "0xdb5ee577daea48b6966474a26b8762e538cbc0487f1b064c72f0b59e84e3f787",
      "transactionType": "CALL",
      "contractName": null,
      "contractAddress": "0x80dbf1b22568ab7c8b1e867ace64c7dbde26a18d",
      "function": "grantBridgeRole(address)",
      "arguments": [
        "0xf821eAbB1eD527739013C21e1E597065F7b70ae1"
      ],
      "transaction": {
        "from": "0xf8f0f5c8c3fdc3213c7bf6e4140257f8f09d22a9",
        "to": "0x80dbf1b22568ab7c8b1e867ace64c7dbde26a18d",
        "gas": "0x1175b",
        "value": "0x0",
        "input": "0xa5e99b8e000000000000000000000000f821eabb1ed527739013c21e1e597065f7b70ae1",
        "nonce": "0x17e",
        "chainId": "0x14a34"
      },
      "additionalContracts": [],
      "isFixedGasLimit": false
    }
  ],
  "receipts": [
    {
      "status": "0x1",
      "cumulativeGasUsed": "0x2cde94",
      "logs": [
        {
          "address": "0xe14176eb1a2a31a77ac122f8c5aa2e102e27d3c5",
          "topics": [
            "0x2f8788117e7eff1d82e926ec794901d17c78024a50270940304540a733656f0d",
            "0x52ba824bfabc2bcfcdf7f0edbb486ebb05e1836c90e78047efeb949990f72e5f",
            "0x000000000000000000000000f821eabb1ed527739013c21e1e597065f7b70ae1",
            "0x000000000000000000000000f8f0f5c8c3fdc3213c7bf6e4140257f8f09d22a9"
          ],
          "data": "0x",
          "blockHash": "0x1be74e62e5510625c6ecc2022a4b44e211b5479f2fc98282a21f214c52c8b34d",
          "blockNumber": "0x1a0418e",
          "blockTimestamp": "0x6853e1fc",
          "transactionHash": "0xd5e977e250fb7b3737b576974739cbfc2c4454b4ee01c97067a919a3bf3f78d2",
          "transactionIndex": "0x8",
          "logIndex": "0x59",
          "removed": false
        }
      ],
      "logsBloom": "0x00000004000000800000000000000000000000000000000000000000000000000000000000000800000004000000000000000000100000000000000200000000000400000000000000000000000000000000000000000000000000000000000000000000000000000000000000000000000000000000000000000000000000000000000000000000008000000000000000000000000000000000000000000000000000000000000000000000000000000000000000000000001000000000000040000000000000000080000000000000000000001000000100000000000000000000000000000000000000000000000000000000004000000000040000000000",
      "type": "0x2",
      "transactionHash": "0xd5e977e250fb7b3737b576974739cbfc2c4454b4ee01c97067a919a3bf3f78d2",
      "transactionIndex": "0x8",
      "blockHash": "0x1be74e62e5510625c6ecc2022a4b44e211b5479f2fc98282a21f214c52c8b34d",
      "blockNumber": "0x1a0418e",
      "gasUsed": "0xca40",
      "effectiveGasPrice": "0x11f",
      "from": "0xf8f0f5c8c3fdc3213c7bf6e4140257f8f09d22a9",
      "to": "0xe14176eb1a2a31a77ac122f8c5aa2e102e27d3c5",
      "contractAddress": null,
      "l1BaseFeeScalar": "0x44d",
      "l1BlobBaseFee": "0x1",
      "l1BlobBaseFeeScalar": "0xa118b",
      "l1Fee": "0x83",
      "l1GasPrice": "0x25",
      "l1GasUsed": "0x640"
    },
    {
      "status": "0x1",
      "cumulativeGasUsed": "0x2da8d4",
      "logs": [
        {
          "address": "0x80dbf1b22568ab7c8b1e867ace64c7dbde26a18d",
          "topics": [
            "0x2f8788117e7eff1d82e926ec794901d17c78024a50270940304540a733656f0d",
            "0x52ba824bfabc2bcfcdf7f0edbb486ebb05e1836c90e78047efeb949990f72e5f",
            "0x000000000000000000000000f821eabb1ed527739013c21e1e597065f7b70ae1",
            "0x000000000000000000000000f8f0f5c8c3fdc3213c7bf6e4140257f8f09d22a9"
          ],
          "data": "0x",
          "blockHash": "0x1be74e62e5510625c6ecc2022a4b44e211b5479f2fc98282a21f214c52c8b34d",
          "blockNumber": "0x1a0418e",
          "blockTimestamp": "0x6853e1fc",
          "transactionHash": "0xdb5ee577daea48b6966474a26b8762e538cbc0487f1b064c72f0b59e84e3f787",
          "transactionIndex": "0x9",
          "logIndex": "0x5a",
          "removed": false
        }
      ],
      "logsBloom": "0x00000004000000000000000000000000000000000000000000000000000000000000000000000800000004000000000000000000100000000000000200000000000400000000000000000000000000000000000000000000000000000000000000000000000000000000000000000000000000000000000000000000000000000000000000000000008000000000000000000000000000000100000000000000000000000000000000000000000000000000000000000000001000000000800040000000000000000000000200000000000000001000000100000000000000000000000000000000000000000000000000000000000000000000040000000000",
      "type": "0x2",
      "transactionHash": "0xdb5ee577daea48b6966474a26b8762e538cbc0487f1b064c72f0b59e84e3f787",
      "transactionIndex": "0x9",
      "blockHash": "0x1be74e62e5510625c6ecc2022a4b44e211b5479f2fc98282a21f214c52c8b34d",
      "blockNumber": "0x1a0418e",
      "gasUsed": "0xca40",
      "effectiveGasPrice": "0x11f",
      "from": "0xf8f0f5c8c3fdc3213c7bf6e4140257f8f09d22a9",
      "to": "0x80dbf1b22568ab7c8b1e867ace64c7dbde26a18d",
      "contractAddress": null,
      "l1BaseFeeScalar": "0x44d",
      "l1BlobBaseFee": "0x1",
      "l1BlobBaseFeeScalar": "0xa118b",
      "l1Fee": "0x83",
      "l1GasPrice": "0x25",
      "l1GasUsed": "0x640"
    }
  ],
  "libraries": [],
  "pending": [],
  "returns": {},
  "timestamp": 1750327802,
  "chain": 84532,
  "commit": null
}