{
  "transactions": [
    {
      "hash": "0xb2e257c342bd54f4e554ce3d21c746776df296dfbdf3f2477af0d1dde51d77ec",
      "transactionType": "CALL",
      "contractName": null,
      "contractAddress": "0xe9f6229f3785724cd4b3f0eb59609f90e54fe672",
      "function": "grantBridgeRole(address)",
      "arguments": [
        "0x479D045e2112058740fA4227a469D74dBb97b3B3"
      ],
      "transaction": {
        "from": "0xf8f0f5c8c3fdc3213c7bf6e4140257f8f09d22a9",
        "to": "0xe9f6229f3785724cd4b3f0eb59609f90e54fe672",
        "gas": "0x1175b",
        "value": "0x0",
        "input": "0xa5e99b8e000000000000000000000000479d045e2112058740fa4227a469d74dbb97b3b3",
        "nonce": "0x136",
        "chainId": "0x14a34"
      },
      "additionalContracts": [],
      "isFixedGasLimit": false
    },
    {
      "hash": "0xccbb2ed357f5668105576f65e6fb41628fba5b29c7997a2dec27fdde4db9d0d1",
      "transactionType": "CALL",
      "contractName": null,
      "contractAddress": "0xbd8f61f85ef7e7f68f790b8ff2ea7b899efd1a42",
      "function": "grantBridgeRole(address)",
      "arguments": [
        "0x479D045e2112058740fA4227a469D74dBb97b3B3"
      ],
      "transaction": {
        "from": "0xf8f0f5c8c3fdc3213c7bf6e4140257f8f09d22a9",
        "to": "0xbd8f61f85ef7e7f68f790b8ff2ea7b899efd1a42",
        "gas": "0x1175b",
        "value": "0x0",
        "input": "0xa5e99b8e000000000000000000000000479d045e2112058740fa4227a469d74dbb97b3b3",
        "nonce": "0x137",
        "chainId": "0x14a34"
      },
      "additionalContracts": [],
      "isFixedGasLimit": false
    }
  ],
  "receipts": [
    {
      "status": "0x1",
      "cumulativeGasUsed": "0x200fc0",
      "logs": [
        {
          "address": "0xe9f6229f3785724cd4b3f0eb59609f90e54fe672",
          "topics": [
            "0x2f8788117e7eff1d82e926ec794901d17c78024a50270940304540a733656f0d",
            "0x52ba824bfabc2bcfcdf7f0edbb486ebb05e1836c90e78047efeb949990f72e5f",
            "0x000000000000000000000000479d045e2112058740fa4227a469d74dbb97b3b3",
            "0x000000000000000000000000f8f0f5c8c3fdc3213c7bf6e4140257f8f09d22a9"
          ],
          "data": "0x",
          "blockHash": "0xd394bf8628af21579b291d0bfa35d88adfa8e569aaee9a2699a934e236186ef0",
          "blockNumber": "0x19fb492",
          "blockTimestamp": "0x6852c804",
          "transactionHash": "0xb2e257c342bd54f4e554ce3d21c746776df296dfbdf3f2477af0d1dde51d77ec",
          "transactionIndex": "0x7",
          "logIndex": "0x54",
          "removed": false
        }
      ],
      "logsBloom": "0x00000004000000000000800000000000000000000000000000000000000000000000000000000800000004000000000000000000000000000000000000000000000400000000000000000001000000000000000000000000000000000000000000000000000000000000000000000000000000000000000000000000000000000000000000000000008000000200000000000000000000000000000000000000000000000000000000000000080000000000000000000000001000000000000040000000000000000000000000000200000000000000000100000000000000000000000000000000000000000080000000000000000000000000040000000000",
      "type": "0x2",
      "transactionHash": "0xb2e257c342bd54f4e554ce3d21c746776df296dfbdf3f2477af0d1dde51d77ec",
      "transactionIndex": "0x7",
      "blockHash": "0xd394bf8628af21579b291d0bfa35d88adfa8e569aaee9a2699a934e236186ef0",
      "blockNumber": "0x19fb492",
      "gasUsed": "0xca40",
      "effectiveGasPrice": "0x2578d",
      "from": "0xf8f0f5c8c3fdc3213c7bf6e4140257f8f09d22a9",
      "to": "0xe9f6229f3785724cd4b3f0eb59609f90e54fe672",
      "contractAddress": null,
      "l1BaseFeeScalar": "0x44d",
      "l1BlobBaseFee": "0x1",
      "l1BlobBaseFeeScalar": "0xa118b",
      "l1Fee": "0x16097",
      "l1GasPrice": "0xc802",
      "l1GasUsed": "0x640"
    },
    {
      "status": "0x1",
      "cumulativeGasUsed": "0x2ab058",
      "logs": [
        {
          "address": "0xbd8f61f85ef7e7f68f790b8ff2ea7b899efd1a42",
          "topics": [
            "0x2f8788117e7eff1d82e926ec794901d17c78024a50270940304540a733656f0d",
            "0x52ba824bfabc2bcfcdf7f0edbb486ebb05e1836c90e78047efeb949990f72e5f",
            "0x000000000000000000000000479d045e2112058740fa4227a469d74dbb97b3b3",
            "0x000000000000000000000000f8f0f5c8c3fdc3213c7bf6e4140257f8f09d22a9"
          ],
          "data": "0x",
          "blockHash": "0xd394bf8628af21579b291d0bfa35d88adfa8e569aaee9a2699a934e236186ef0",
          "blockNumber": "0x19fb492",
          "blockTimestamp": "0x6852c804",
          "transactionHash": "0xccbb2ed357f5668105576f65e6fb41628fba5b29c7997a2dec27fdde4db9d0d1",
          "transactionIndex": "0x9",
          "logIndex": "0x6a",
          "removed": false
        }
      ],
      "logsBloom": "0x00000004000010000000800000000000000000000000000000080000000000000000000000000800000004000000000000000000000000000000000000000000000400000000000000200001000000000000000000000000000000000000000000000000000000000000000000000000000000000000000000000000000000000000000000000000008000000000000000000000000000000000000000000000000000000000000000000000000000000000000000000000001000000000000040000000000000000000000000000200000000000000000100000000000000000000000000000000000000000000000000000000000000000000040000000000",
      "type": "0x2",
      "transactionHash": "0xccbb2ed357f5668105576f65e6fb41628fba5b29c7997a2dec27fdde4db9d0d1",
      "transactionIndex": "0x9",
      "blockHash": "0xd394bf8628af21579b291d0bfa35d88adfa8e569aaee9a2699a934e236186ef0",
      "blockNumber": "0x19fb492",
      "gasUsed": "0xca40",
      "effectiveGasPrice": "0x2578d",
      "from": "0xf8f0f5c8c3fdc3213c7bf6e4140257f8f09d22a9",
      "to": "0xbd8f61f85ef7e7f68f790b8ff2ea7b899efd1a42",
      "contractAddress": null,
      "l1BaseFeeScalar": "0x44d",
      "l1BlobBaseFee": "0x1",
      "l1BlobBaseFeeScalar": "0xa118b",
      "l1Fee": "0x16097",
      "l1GasPrice": "0xc802",
      "l1GasUsed": "0x640"
    }
  ],
  "libraries": [],
  "pending": [],
  "returns": {},
  "timestamp": 1750255618,
  "chain": 84532,
  "commit": null
}