{
  "transactions": [
    {
      "hash": "0xc8e7870b7ce580be0b50911034f4cbf781f69ed6c70a2864471ea62d1ec34618",
      "transactionType": "CALL",
      "contractName": null,
      "contractAddress": "0x9520d4653c8a8bb6b4d567be010c8fc87ef1a35f",
      "function": "grantBridgeRole(address)",
      "arguments": [
        "0xA0e8b3d24ffA291D1c8E59c7AaD5CC8bDd26734C"
      ],
      "transaction": {
        "from": "0xf8f0f5c8c3fdc3213c7bf6e4140257f8f09d22a9",
        "to": "0x9520d4653c8a8bb6b4d567be010c8fc87ef1a35f",
        "gas": "0x1175b",
        "value": "0x0",
        "input": "0xa5e99b8e000000000000000000000000a0e8b3d24ffa291d1c8e59c7aad5cc8bdd26734c",
        "nonce": "0x123",
        "chainId": "0x14a34"
      },
      "additionalContracts": [],
      "isFixedGasLimit": false
    },
    {
      "hash": "0x0e5a815a8b6deb951596931b8f9eafd5a7619e035409304b5c65ecc14449f454",
      "transactionType": "CALL",
      "contractName": null,
      "contractAddress": "0x4575e835fbf9667ee577ab3ed5d073e932cd2a3d",
      "function": "grantBridgeRole(address)",
      "arguments": [
        "0xA0e8b3d24ffA291D1c8E59c7AaD5CC8bDd26734C"
      ],
      "transaction": {
        "from": "0xf8f0f5c8c3fdc3213c7bf6e4140257f8f09d22a9",
        "to": "0x4575e835fbf9667ee577ab3ed5d073e932cd2a3d",
        "gas": "0x1175b",
        "value": "0x0",
        "input": "0xa5e99b8e000000000000000000000000a0e8b3d24ffa291d1c8e59c7aad5cc8bdd26734c",
        "nonce": "0x124",
        "chainId": "0x14a34"
      },
      "additionalContracts": [],
      "isFixedGasLimit": false
    }
  ],
  "receipts": [
    {
      "status": "0x1",
      "cumulativeGasUsed": "0x33f0ff",
      "logs": [
        {
          "address": "0x9520d4653c8a8bb6b4d567be010c8fc87ef1a35f",
          "topics": [
            "0x2f8788117e7eff1d82e926ec794901d17c78024a50270940304540a733656f0d",
            "0x52ba824bfabc2bcfcdf7f0edbb486ebb05e1836c90e78047efeb949990f72e5f",
            "0x000000000000000000000000a0e8b3d24ffa291d1c8e59c7aad5cc8bdd26734c",
            "0x000000000000000000000000f8f0f5c8c3fdc3213c7bf6e4140257f8f09d22a9"
          ],
          "data": "0x",
          "blockHash": "0x297a665e2d144991c25548904e6d2d2803905b71aed3cb4bdbcf231d30b989ea",
          "blockNumber": "0x19fa8e6",
          "blockTimestamp": "0x6852b0ac",
          "transactionHash": "0xc8e7870b7ce580be0b50911034f4cbf781f69ed6c70a2864471ea62d1ec34618",
          "transactionIndex": "0x7",
          "logIndex": "0x8d",
          "removed": false
        }
      ],
      "logsBloom": "0x00000004000000000000000000000000000000000000000000000000000000000000000000000800000004000000000000000000000000000000000000000000000400000004000000000000000000000000000000000000000000000000000000000000400000000000000000000000000000000000000000000000000000000000000000000000008000400000000200000000000000000000000000000000000001000000000000000000000000000000000000000000001000000000000040000000000000000000000000000000000000000000000100000000000000000000000000000000000000000000000000000000000000000000040000002000",
      "type": "0x2",
      "transactionHash": "0xc8e7870b7ce580be0b50911034f4cbf781f69ed6c70a2864471ea62d1ec34618",
      "transactionIndex": "0x7",
      "blockHash": "0x297a665e2d144991c25548904e6d2d2803905b71aed3cb4bdbcf231d30b989ea",
      "blockNumber": "0x19fa8e6",
      "gasUsed": "0xca40",
      "effectiveGasPrice": "0x20cf9",
      "from": "0xf8f0f5c8c3fdc3213c7bf6e4140257f8f09d22a9",
      "to": "0x9520d4653c8a8bb6b4d567be010c8fc87ef1a35f",
      "contractAddress": null,
      "l1BaseFeeScalar": "0x44d",
      "l1BlobBaseFee": "0x1",
      "l1BlobBaseFeeScalar": "0xa118b",
      "l1Fee": "0x1a09f",
      "l1GasPrice": "0xec5b",
      "l1GasUsed": "0x640"
    },
    {
      "status": "0x1",
      "cumulativeGasUsed": "0x34bb3f",
      "logs": [
        {
          "address": "0x4575e835fbf9667ee577ab3ed5d073e932cd2a3d",
          "topics": [
            "0x2f8788117e7eff1d82e926ec794901d17c78024a50270940304540a733656f0d",
            "0x52ba824bfabc2bcfcdf7f0edbb486ebb05e1836c90e78047efeb949990f72e5f",
            "0x000000000000000000000000a0e8b3d24ffa291d1c8e59c7aad5cc8bdd26734c",
            "0x000000000000000000000000f8f0f5c8c3fdc3213c7bf6e4140257f8f09d22a9"
          ],
          "data": "0x",
          "blockHash": "0x297a665e2d144991c25548904e6d2d2803905b71aed3cb4bdbcf231d30b989ea",
          "blockNumber": "0x19fa8e6",
          "blockTimestamp": "0x6852b0ac",
          "transactionHash": "0x0e5a815a8b6deb951596931b8f9eafd5a7619e035409304b5c65ecc14449f454",
          "transactionIndex": "0x8",
          "logIndex": "0x8e",
          "removed": false
        }
      ],
      "logsBloom": "0x00000004000000000000000000000000000000000000000000000000000080000000000000000800000004000000000000000000000000000000000000000000000400000004000000000000000000000000000000000000000000000000000000000000000000000000000000000000000000000000000000000000000000004000000000000000008000000000000000000000000000000000000000000000000001000000000000000000000000000000000000000000001000000000000040000000000000000000000000000000000000000000000100000000000000000000000002000000000000000000000000000000000000000000040000002000",
      "type": "0x2",
      "transactionHash": "0x0e5a815a8b6deb951596931b8f9eafd5a7619e035409304b5c65ecc14449f454",
      "transactionIndex": "0x8",
      "blockHash": "0x297a665e2d144991c25548904e6d2d2803905b71aed3cb4bdbcf231d30b989ea",
      "blockNumber": "0x19fa8e6",
      "gasUsed": "0xca40",
      "effectiveGasPrice": "0x20cf9",
      "from": "0xf8f0f5c8c3fdc3213c7bf6e4140257f8f09d22a9",
      "to": "0x4575e835fbf9667ee577ab3ed5d073e932cd2a3d",
      "contractAddress": null,
      "l1BaseFeeScalar": "0x44d",
      "l1BlobBaseFee": "0x1",
      "l1BlobBaseFeeScalar": "0xa118b",
      "l1Fee": "0x1a09f",
      "l1GasPrice": "0xec5b",
      "l1GasUsed": "0x640"
    }
  ],
  "libraries": [],
  "pending": [],
  "returns": {},
  "timestamp": 1750249642,
  "chain": 84532,
  "commit": null
}