{
  "transactions": [
    {
      "hash": "0x839386b6de46ccacb51cf89698791b6f492d5abab781328d058333f257a33cde",
      "transactionType": "CALL",
      "contractName": null,
      "contractAddress": "0xc0aba464b9446d4c5f8ac49bb88fea19e4f2eb91",
      "function": "grantBridgeRole(address)",
      "arguments": [
        "0x414C8492c018f8f9c86C3f920e57AbDf10015cae"
      ],
      "transaction": {
        "from": "0xf8f0f5c8c3fdc3213c7bf6e4140257f8f09d22a9",
        "to": "0xc0aba464b9446d4c5f8ac49bb88fea19e4f2eb91",
        "gas": "0x1175b",
        "value": "0x0",
        "input": "0xa5e99b8e000000000000000000000000414c8492c018f8f9c86c3f920e57abdf10015cae",
        "nonce": "0xeb",
        "chainId": "0x14a34"
      },
      "additionalContracts": [],
      "isFixedGasLimit": false
    }
  ],
  "receipts": [
    {
      "status": "0x1",
      "cumulativeGasUsed": "0x89f6a0",
      "logs": [
        {
          "address": "0xc0aba464b9446d4c5f8ac49bb88fea19e4f2eb91",
          "topics": [
            "0x2f8788117e7eff1d82e926ec794901d17c78024a50270940304540a733656f0d",
            "0x52ba824bfabc2bcfcdf7f0edbb486ebb05e1836c90e78047efeb949990f72e5f",
            "0x000000000000000000000000414c8492c018f8f9c86c3f920e57abdf10015cae",
            "0x000000000000000000000000f8f0f5c8c3fdc3213c7bf6e4140257f8f09d22a9"
          ],
          "data": "0x",
          "blockHash": "0x1af510e24ca027937c8ddd2f959df770dd4e09699c6ccea83286ed5d7b95725a",
          "blockNumber": "0x19ee80e",
          "blockTimestamp": "0x68512efc",
          "transactionHash": "0x839386b6de46ccacb51cf89698791b6f492d5abab781328d058333f257a33cde",
          "transactionIndex": "0x21",
          "logIndex": "0x153",
          "removed": false
        }
      ],
      "logsBloom": "0x00000004000000000000000000001000000000000000000000000002000000000000000000000800000004000000000000000000000000000000000000000000000400000000000000000000000000000000000000000000000000200000000000000000000000000000000000000000000000000000000000000000000000000000000000800000008000000000000000000000000000000000000000000000000000000000000000000000000000000000000000000000001000000000000040000400000000000000000000000000000000000000000100000000000000000000000000080000000000000000000000000000000000000000040000000000",
      "type": "0x2",
      "transactionHash": "0x839386b6de46ccacb51cf89698791b6f492d5abab781328d058333f257a33cde",
      "transactionIndex": "0x21",
      "blockHash": "0x1af510e24ca027937c8ddd2f959df770dd4e09699c6ccea83286ed5d7b95725a",
      "blockNumber": "0x19ee80e",
      "gasUsed": "0xca40",
      "effectiveGasPrice": "0x754",
      "from": "0xf8f0f5c8c3fdc3213c7bf6e4140257f8f09d22a9",
      "to": "0xc0aba464b9446d4c5f8ac49bb88fea19e4f2eb91",
      "contractAddress": null,
      "l1BaseFeeScalar": "0x44d",
      "l1BlobBaseFee": "0x26",
      "l1BlobBaseFeeScalar": "0xa118b",
      "l1Fee": "0x29d4c2e",
      "l1GasPrice": "0x17bea65",
      "l1GasUsed": "0x640"
    }
  ],
  "libraries": [],
  "pending": [],
  "returns": {},
  "timestamp": 1750150907,
  "chain": 84532,
  "commit": null
}