{
  "transactions": [
    {
      "hash": "0x08eecf0fa0b5927d46e744596daea54bfff66413c0c1cc31a04a346e77c86521",
      "transactionType": "CALL",
      "contractName": null,
      "contractAddress": "0xcb6aeaa65db28bcc9c7dbed5d8176bb9dd8e6922",
      "function": "grantBridgeRole(address)",
      "arguments": [
        "0x0351b235f4f14B20606Eba7E23406fb2A4E10f3a"
      ],
      "transaction": {
        "from": "0xf8f0f5c8c3fdc3213c7bf6e4140257f8f09d22a9",
        "to": "0xcb6aeaa65db28bcc9c7dbed5d8176bb9dd8e6922",
        "gas": "0x1175b",
        "value": "0x0",
        "input": "0xa5e99b8e0000000000000000000000000351b235f4f14b20606eba7e23406fb2a4e10f3a",
        "nonce": "0x117",
        "chainId": "0x14a34"
      },
      "additionalContracts": [],
      "isFixedGasLimit": false
    }
  ],
  "receipts": [
    {
      "status": "0x1",
      "cumulativeGasUsed": "0x4d0f04",
      "logs": [
        {
          "address": "0xcb6aeaa65db28bcc9c7dbed5d8176bb9dd8e6922",
          "topics": [
            "0x2f8788117e7eff1d82e926ec794901d17c78024a50270940304540a733656f0d",
            "0x52ba824bfabc2bcfcdf7f0edbb486ebb05e1836c90e78047efeb949990f72e5f",
            "0x0000000000000000000000000351b235f4f14b20606eba7e23406fb2a4e10f3a",
            "0x000000000000000000000000f8f0f5c8c3fdc3213c7bf6e4140257f8f09d22a9"
          ],
          "data": "0x",
          "blockHash": "0x00bbe6c392f17b85502eb4ba76d5177954c07f888a7bb75ca93ecd03a13e952b",
          "blockNumber": "0x19fa0aa",
          "blockTimestamp": "0x6852a034",
          "transactionHash": "0x08eecf0fa0b5927d46e744596daea54bfff66413c0c1cc31a04a346e77c86521",
          "transactionIndex": "0xe",
          "logIndex": "0xc7",
          "removed": false
        }
      ],
      "logsBloom": "0x00000004000000000000000000000000000000000000000000000000000000000000000000000800000004000000000000000000000000000000000000000000000400000000000000000000000000000000000000000000000000000000000000000000000000000000000000000000000000000080000000000000000000000000000000000000008020000000000000000000000000000000008000000000000000000000000020000000000000000000000000000000001000000000000040000000000000010000000000000000000000000000000100000000000000000000000000000000000000000000000000000000000100000000040000000000",
      "type": "0x2",
      "transactionHash": "0x08eecf0fa0b5927d46e744596daea54bfff66413c0c1cc31a04a346e77c86521",
      "transactionIndex": "0xe",
      "blockHash": "0x00bbe6c392f17b85502eb4ba76d5177954c07f888a7bb75ca93ecd03a13e952b",
      "blockNumber": "0x19fa0aa",
      "gasUsed": "0xca40",
      "effectiveGasPrice": "0x2d94",
      "from": "0xf8f0f5c8c3fdc3213c7bf6e4140257f8f09d22a9",
      "to": "0xcb6aeaa65db28bcc9c7dbed5d8176bb9dd8e6922",
      "contractAddress": null,
      "l1BaseFeeScalar": "0x44d",
      "l1BlobBaseFee": "0x1",
      "l1BlobBaseFeeScalar": "0xa118b",
      "l1Fee": "0x2d002",
      "l1GasPrice": "0x19894",
      "l1GasUsed": "0x640"
    }
  ],
  "libraries": [],
  "pending": [],
  "returns": {},
  "timestamp": 1750245426,
  "chain": 84532,
  "commit": null
}