{
  "transactions": [
    {
      "hash": "0x77ea467c0cafedc26e6a6d25ae620647fbfd5d05c7619048d1bc414c930cf514",
      "transactionType": "CALL",
      "contractName": null,
      "contractAddress": "0x8c6d93faebbcc7ecd34df712b0be243bc6046252",
      "function": "grantBridgeRole(address)",
      "arguments": [
        "0x4AB69c0d6D2594f689eCfa67abFa72dc5628cb6D"
      ],
      "transaction": {
        "from": "0xf8f0f5c8c3fdc3213c7bf6e4140257f8f09d22a9",
        "to": "0x8c6d93faebbcc7ecd34df712b0be243bc6046252",
        "gas": "0x1175b",
        "value": "0x0",
        "input": "0xa5e99b8e0000000000000000000000004ab69c0d6d2594f689ecfa67abfa72dc5628cb6d",
        "nonce": "0x1f3",
        "chainId": "0xaa36a7"
      },
      "additionalContracts": [],
      "isFixedGasLimit": false
    }
  ],
  "receipts": [
    {
      "status": "0x1",
      "cumulativeGasUsed": "0x133194a",
      "logs": [
        {
          "address": "0x8c6d93faebbcc7ecd34df712b0be243bc6046252",
          "topics": [
            "0x2f8788117e7eff1d82e926ec794901d17c78024a50270940304540a733656f0d",
            "0x52ba824bfabc2bcfcdf7f0edbb486ebb05e1836c90e78047efeb949990f72e5f",
            "0x0000000000000000000000004ab69c0d6d2594f689ecfa67abfa72dc5628cb6d",
            "0x000000000000000000000000f8f0f5c8c3fdc3213c7bf6e4140257f8f09d22a9"
          ],
          "data": "0x",
          "blockHash": "0x58de36e0a0b85659251b16e6e3facb3c6a417941e3833eae2c30aa1ae81f748a",
          "blockNumber": "0x82b85b",
          "transactionHash": "0x77ea467c0cafedc26e6a6d25ae620647fbfd5d05c7619048d1bc414c930cf514",
          "transactionIndex": "0x85",
          "logIndex": "0xfe",
          "removed": false
        }
      ],
      "logsBloom": "0x00000004000000000000000000080000000000000000000000044000000000000000000000000800000004000000000000000000000000000000000000000000000400000000000000000000000000000000000000000000000000002000000000000000000008000000000000000000000000000000000000000000000000000000000000000000008000000000000000000000000000000000000000000000000000000000000000000000000000000000000000000000001000000000000040000000000000000000000000000000000000000000000100000000000000000000000000000000000000000000000000000000000000000000040000000000",
      "type": "0x2",
      "transactionHash": "0x77ea467c0cafedc26e6a6d25ae620647fbfd5d05c7619048d1bc414c930cf514",
      "transactionIndex": "0x85",
      "blockHash": "0x58de36e0a0b85659251b16e6e3facb3c6a417941e3833eae2c30aa1ae81f748a",
      "blockNumber": "0x82b85b",
      "gasUsed": "0xca40",
      "effectiveGasPrice": "0x4a1fa6d3",
      "from": "0xf8f0f5c8c3fdc3213c7bf6e4140257f8f09d22a9",
      "to": "0x8c6d93faebbcc7ecd34df712b0be243bc6046252",
      "contractAddress": null
    }
  ],
  "libraries": [],
  "pending": [],
  "returns": {},
  "timestamp": 1750143528,
  "chain": 11155111,
  "commit": null
}