{
  "transactions": [
    {
      "hash": "0x49fd3c8caea46761a05d156579328d5a6436f1df6b54a10c4145c5749bc094d3",
      "transactionType": "CALL",
      "contractName": null,
      "contractAddress": "0x231ab42f4f0c45548e0e743abfca1fd678a2fa38",
      "function": "grantBridgeRole(address)",
      "arguments": [
        "0x9FF2052cf498541E727b40582e348141cd591d27"
      ],
      "transaction": {
        "from": "0xf8f0f5c8c3fdc3213c7bf6e4140257f8f09d22a9",
        "to": "0x231ab42f4f0c45548e0e743abfca1fd678a2fa38",
        "gas": "0x1175b",
        "value": "0x0",
        "input": "0xa5e99b8e0000000000000000000000009ff2052cf498541e727b40582e348141cd591d27",
        "nonce": "0x21f",
        "chainId": "0xaa36a7"
      },
      "additionalContracts": [],
      "isFixedGasLimit": false
    }
  ],
  "receipts": [
    {
      "status": "0x1",
      "cumulativeGasUsed": "0x13cc978",
      "logs": [
        {
          "address": "0x231ab42f4f0c45548e0e743abfca1fd678a2fa38",
          "topics": [
            "0x2f8788117e7eff1d82e926ec794901d17c78024a50270940304540a733656f0d",
            "0x52ba824bfabc2bcfcdf7f0edbb486ebb05e1836c90e78047efeb949990f72e5f",
            "0x0000000000000000000000009ff2052cf498541e727b40582e348141cd591d27",
            "0x000000000000000000000000f8f0f5c8c3fdc3213c7bf6e4140257f8f09d22a9"
          ],
          "data": "0x",
          "blockHash": "0xdc8ab4f1f08b1c669f53cb04ca2b8e469e519f6e4a9a4e2c1dc7eadcf7af0fe6",
          "blockNumber": "0x82d5aa",
          "transactionHash": "0x49fd3c8caea46761a05d156579328d5a6436f1df6b54a10c4145c5749bc094d3",
          "transactionIndex": "0xda",
          "logIndex": "0xe8",
          "removed": false
        }
      ],
      "logsBloom": "0x00000004000000000000000000100000000000000000000000100000000000000000000000000800000004000000000000000000000002000080000000000000000400000000000000000000000000200000000000000000000000000000000000000000000000000000000000000000000000000000000000000000000000000000000000000000008000000000000000000000000000000000020000000000000000000000000000000000000000000000000000000000001000000000000040000000000000000000000000000000000000000000000100000000000000000000000000000000000000000000000000000000000000000000040000000000",
      "type": "0x2",
      "transactionHash": "0x49fd3c8caea46761a05d156579328d5a6436f1df6b54a10c4145c5749bc094d3",
      "transactionIndex": "0xda",
      "blockHash": "0xdc8ab4f1f08b1c669f53cb04ca2b8e469e519f6e4a9a4e2c1dc7eadcf7af0fe6",
      "blockNumber": "0x82d5aa",
      "gasUsed": "0xca40",
      "effectiveGasPrice": "0x1ccba7",
      "from": "0xf8f0f5c8c3fdc3213c7bf6e4140257f8f09d22a9",
      "to": "0x231ab42f4f0c45548e0e743abfca1fd678a2fa38",
      "contractAddress": null
    }
  ],
  "libraries": [],
  "pending": [],
  "returns": {},
  "timestamp": 1750233783,
  "chain": 11155111,
  "commit": null
}