{
  "transactions": [
    {
      "hash": "0x0c9f75a551e63f7ec191364178bf6f0b7ad6f6f605282856a13f912909c031bb",
      "transactionType": "CALL",
      "contractName": null,
      "contractAddress": "0xd0e0a2087012c882bc3ce2089633c353b63250ed",
      "function": "grantBridgeRole(address)",
      "arguments": [
        "0xbb88C5F3263e5DF30069F85449aF1f52A5700D68"
      ],
      "transaction": {
        "from": "0xf8f0f5c8c3fdc3213c7bf6e4140257f8f09d22a9",
        "to": "0xd0e0a2087012c882bc3ce2089633c353b63250ed",
        "gas": "0x1174a",
        "value": "0x0",
        "input": "0xa5e99b8e000000000000000000000000bb88c5f3263e5df30069f85449af1f52a5700d68",
        "nonce": "0x228",
        "chainId": "0xaa36a7"
      },
      "additionalContracts": [],
      "isFixedGasLimit": false
    }
  ],
  "receipts": [
    {
      "status": "0x1",
      "cumulativeGasUsed": "0xed52d0",
      "logs": [
        {
          "address": "0xd0e0a2087012c882bc3ce2089633c353b63250ed",
          "topics": [
            "0x2f8788117e7eff1d82e926ec794901d17c78024a50270940304540a733656f0d",
            "0x52ba824bfabc2bcfcdf7f0edbb486ebb05e1836c90e78047efeb949990f72e5f",
            "0x000000000000000000000000bb88c5f3263e5df30069f85449af1f52a5700d68",
            "0x000000000000000000000000f8f0f5c8c3fdc3213c7bf6e4140257f8f09d22a9"
          ],
          "data": "0x",
          "blockHash": "0xf5bb592e556aefc4081ee550c40091518e2697950864521525a3df645de4d406",
          "blockNumber": "0x82d7ac",
          "transactionHash": "0x0c9f75a551e63f7ec191364178bf6f0b7ad6f6f605282856a13f912909c031bb",
          "transactionIndex": "0xab",
          "logIndex": "0xc5",
          "removed": false
        }
      ],
      "logsBloom": "0x00000004000000000000000000000000000000000000000000000000000000002000000000001800000404000000000000000000000000000000000000000000000400000000000000000000000000000000000000000000000000000000000000000000000000000000000000000000000000000000000000000000000000000000000000000000008000000000000000000000000000000000000000000000000000000002000000000000000000000000000000000000001000000000000040000000000000000001000000000000000000000010000100000000000000000000000000000000000000000000000000000000000000000000040000000000",
      "type": "0x2",
      "transactionHash": "0x0c9f75a551e63f7ec191364178bf6f0b7ad6f6f605282856a13f912909c031bb",
      "transactionIndex": "0xab",
      "blockHash": "0xf5bb592e556aefc4081ee550c40091518e2697950864521525a3df645de4d406",
      "blockNumber": "0x82d7ac",
      "gasUsed": "0xca34",
      "effectiveGasPrice": "0x1ac702",
      "from": "0xf8f0f5c8c3fdc3213c7bf6e4140257f8f09d22a9",
      "to": "0xd0e0a2087012c882bc3ce2089633c353b63250ed",
      "contractAddress": null
    }
  ],
  "libraries": [],
  "pending": [],
  "returns": {},
  "timestamp": 1750239949,
  "chain": 11155111,
  "commit": null
}