{
  "transactions": [
    {
      "hash": "0x39c9363ba459cc511c9148f4b8d12cc5aba21bda8d00709605f30d6f1507e3de",
      "transactionType": "CALL",
      "contractName": null,
      "contractAddress": "0xfdc8015b66c98cdf2aa1b0f821b7c46fc0cc25d3",
      "function": "grantBridgeRole(address)",
      "arguments": [
        "0x6758f37fd4D21C7c4100e5101727cCfCA034B07F"
      ],
      "transaction": {
        "from": "0xf8f0f5c8c3fdc3213c7bf6e4140257f8f09d22a9",
        "to": "0xfdc8015b66c98cdf2aa1b0f821b7c46fc0cc25d3",
        "gas": "0x1174a",
        "value": "0x0",
        "input": "0xa5e99b8e0000000000000000000000006758f37fd4d21c7c4100e5101727ccfca034b07f",
        "nonce": "0x206",
        "chainId": "0xaa36a7"
      },
      "additionalContracts": [],
      "isFixedGasLimit": false
    }
  ],
  "receipts": [
    {
      "status": "0x1",
      "cumulativeGasUsed": "0x16f0c37",
      "logs": [
        {
          "address": "0xfdc8015b66c98cdf2aa1b0f821b7c46fc0cc25d3",
          "topics": [
            "0x2f8788117e7eff1d82e926ec794901d17c78024a50270940304540a733656f0d",
            "0x52ba824bfabc2bcfcdf7f0edbb486ebb05e1836c90e78047efeb949990f72e5f",
            "0x0000000000000000000000006758f37fd4d21c7c4100e5101727ccfca034b07f",
            "0x000000000000000000000000f8f0f5c8c3fdc3213c7bf6e4140257f8f09d22a9"
          ],
          "data": "0x",
          "blockHash": "0x480d118f2a399361651d792a4daf660ee6d29dd2ace351b13cbaa7480a496cec",
          "blockNumber": "0x82bac1",
          "transactionHash": "0x39c9363ba459cc511c9148f4b8d12cc5aba21bda8d00709605f30d6f1507e3de",
          "transactionIndex": "0xb9",
          "logIndex": "0x1b4",
          "removed": false
        }
      ],
      "logsBloom": "0x00000004000000000000000000000000000000000000000000000000010000000000400000000800000004040000000000000000000000000000000000000000000400000000000000000000000000000000000000000000000000000000000000000000000000000000000000000000000000000000000000000000000000000000000000000000008000000000000000000000000000000000000000000000000000000000000000000000000000000000000000000000001000000000000040000000000000000000000000000000001000000000000100000000000000000000000000000000000000000000000000080000000000100000040000000000",
      "type": "0x2",
      "transactionHash": "0x39c9363ba459cc511c9148f4b8d12cc5aba21bda8d00709605f30d6f1507e3de",
      "transactionIndex": "0xb9",
      "blockHash": "0x480d118f2a399361651d792a4daf660ee6d29dd2ace351b13cbaa7480a496cec",
      "blockNumber": "0x82bac1",
      "gasUsed": "0xca34",
      "effectiveGasPrice": "0x221a928",
      "from": "0xf8f0f5c8c3fdc3213c7bf6e4140257f8f09d22a9",
      "to": "0xfdc8015b66c98cdf2aa1b0f821b7c46fc0cc25d3",
      "contractAddress": null
    }
  ],
  "libraries": [],
  "pending": [],
  "returns": {},
  "timestamp": 1750150933,
  "chain": 11155111,
  "commit": null
}