{
  "transactions": [
    {
      "hash": "0x638002673826c17e371acf175ed7adb6d1ed882e7ac30b1fa1c43f1fa0a93fb5",
      "transactionType": "CALL",
      "contractName": null,
      "contractAddress": "0xb4b29b7b3250c2b893f0ec83b734b9e5e6cb97b8",
      "function": "grantBridgeRole(address)",
      "arguments": [
        "0xc18880D2631062Ab0D2490052d0D0574c6730ff4"
      ],
      "transaction": {
        "from": "0xf8f0f5c8c3fdc3213c7bf6e4140257f8f09d22a9",
        "to": "0xb4b29b7b3250c2b893f0ec83b734b9e5e6cb97b8",
        "gas": "0x1175b",
        "value": "0x0",
        "input": "0xa5e99b8e000000000000000000000000c18880d2631062ab0d2490052d0d0574c6730ff4",
        "nonce": "0x235",
        "chainId": "0xaa36a7"
      },
      "additionalContracts": [],
      "isFixedGasLimit": false
    }
  ],
  "receipts": [
    {
      "status": "0x1",
      "cumulativeGasUsed": "0xa5d446",
      "logs": [
        {
          "address": "0xb4b29b7b3250c2b893f0ec83b734b9e5e6cb97b8",
          "topics": [
            "0x2f8788117e7eff1d82e926ec794901d17c78024a50270940304540a733656f0d",
            "0x52ba824bfabc2bcfcdf7f0edbb486ebb05e1836c90e78047efeb949990f72e5f",
            "0x000000000000000000000000c18880d2631062ab0d2490052d0d0574c6730ff4",
            "0x000000000000000000000000f8f0f5c8c3fdc3213c7bf6e4140257f8f09d22a9"
          ],
          "data": "0x",
          "blockHash": "0xcadeebcfdd8e0d245e583422779757bbffa5a22263acfbe1c042d7c70589ebaf",
          "blockNumber": "0x82d930",
          "transactionHash": "0x638002673826c17e371acf175ed7adb6d1ed882e7ac30b1fa1c43f1fa0a93fb5",
          "transactionIndex": "0x95",
          "logIndex": "0x71",
          "removed": false
        }
      ],
      "logsBloom": "0x00000004000000004000000000000000000000000000000000000000000000000000000000000800000004000000000000000000000000000000000000000000000400000000000000000000000000000000000000000000000000000000000000000000000000000000000000000000000000000020000000000000000000000002000000000000008000000000000000000400000000000000000000100000000000000000000000000000000000000000000000000000001000000000000040000000000000000000000000000000000000000000000100000000000000000000000000000000000001000000000000000000000000000000040000000000",
      "type": "0x2",
      "transactionHash": "0x638002673826c17e371acf175ed7adb6d1ed882e7ac30b1fa1c43f1fa0a93fb5",
      "transactionIndex": "0x95",
      "blockHash": "0xcadeebcfdd8e0d245e583422779757bbffa5a22263acfbe1c042d7c70589ebaf",
      "blockNumber": "0x82d930",
      "gasUsed": "0xca40",
      "effectiveGasPrice": "0x101885",
      "from": "0xf8f0f5c8c3fdc3213c7bf6e4140257f8f09d22a9",
      "to": "0xb4b29b7b3250c2b893f0ec83b734b9e5e6cb97b8",
      "contractAddress": null
    }
  ],
  "libraries": [],
  "pending": [],
  "returns": {},
  "timestamp": 1750244604,
  "chain": 11155111,
  "commit": null
}