{
  "transactions": [
    {
      "hash": "0x6533321861435b383134cd2b167b71ecb709166cdbe2f4d91598e22183f4bbaa",
      "transactionType": "CALL",
      "contractName": null,
      "contractAddress": "0x53697ba30de9392a24a72fa63f0759288e6be157",
      "function": "grantBridgeRole(address)",
      "arguments": [
        "0x18412E0dF822E17470Fb33B4E466ca2a88629410"
      ],
      "transaction": {
        "from": "0xf8f0f5c8c3fdc3213c7bf6e4140257f8f09d22a9",
        "to": "0x53697ba30de9392a24a72fa63f0759288e6be157",
        "gas": "0x1175b",
        "value": "0x0",
        "input": "0xa5e99b8e00000000000000000000000018412e0df822e17470fb33b4e466ca2a88629410",
        "nonce": "0x211",
        "chainId": "0xaa36a7"
      },
      "additionalContracts": [],
      "isFixedGasLimit": false
    }
  ],
  "receipts": [
    {
      "status": "0x1",
      "cumulativeGasUsed": "0x174e120",
      "logs": [
        {
          "address": "0x53697ba30de9392a24a72fa63f0759288e6be157",
          "topics": [
            "0x2f8788117e7eff1d82e926ec794901d17c78024a50270940304540a733656f0d",
            "0x52ba824bfabc2bcfcdf7f0edbb486ebb05e1836c90e78047efeb949990f72e5f",
            "0x00000000000000000000000018412e0df822e17470fb33b4e466ca2a88629410",
            "0x000000000000000000000000f8f0f5c8c3fdc3213c7bf6e4140257f8f09d22a9"
          ],
          "data": "0x",
          "blockHash": "0x6e7c1bbef320d40a48274be56cb03cdd0ec61be810dd346cd9309e84b3d9478c",
          "blockNumber": "0x82bbd8",
          "transactionHash": "0x6533321861435b383134cd2b167b71ecb709166cdbe2f4d91598e22183f4bbaa",
          "transactionIndex": "0xc9",
          "logIndex": "0x131",
          "removed": false
        }
      ],
      "logsBloom": "0x00000004000000000000800000000000000000000000000000000000000000000000200000000800000004000000000000000000000000040000000000000000000400000000000010000000000000000000000000000000000000000000000000000000000000000000008000000000000000000000000000000000000000000000000000000000008000000000000000000000000000000000000000000000000000000000000000000000000000000000008000000000001000000000000040000000000000000000000000000000000000000000000100000000000000000000000000000000000000000000000000000000000000000000040000000000",
      "type": "0x2",
      "transactionHash": "0x6533321861435b383134cd2b167b71ecb709166cdbe2f4d91598e22183f4bbaa",
      "transactionIndex": "0xc9",
      "blockHash": "0x6e7c1bbef320d40a48274be56cb03cdd0ec61be810dd346cd9309e84b3d9478c",
      "blockNumber": "0x82bbd8",
      "gasUsed": "0xca40",
      "effectiveGasPrice": "0xa116e5",
      "from": "0xf8f0f5c8c3fdc3213c7bf6e4140257f8f09d22a9",
      "to": "0x53697ba30de9392a24a72fa63f0759288e6be157",
      "contractAddress": null
    }
  ],
  "libraries": [],
  "pending": [],
  "returns": {},
  "timestamp": 1750154305,
  "chain": 11155111,
  "commit": null
}