{
  "transactions": [
    {
      "hash": "0x29752cd5c3c239afd029d0beeb6b48a84f13d9878f997caac1f0e13953cc9b17",
      "transactionType": "CALL",
      "contractName": null,
      "contractAddress": "0x04f363269792a5430d67215d2f57fb0a4c6a9986",
      "function": "grantBridgeRole(address)",
      "arguments": [
        "0xaBE7c9aFBb6D1EAE25F005B25c4A9336F22AB37C"
      ],
      "transaction": {
        "from": "0xf8f0f5c8c3fdc3213c7bf6e4140257f8f09d22a9",
        "to": "0x04f363269792a5430d67215d2f57fb0a4c6a9986",
        "gas": "0x1175b",
        "value": "0x0",
        "input": "0xa5e99b8e000000000000000000000000abe7c9afbb6d1eae25f005b25c4a9336f22ab37c",
        "nonce": "0x265",
        "chainId": "0xaa36a7"
      },
      "additionalContracts": [],
      "isFixedGasLimit": false
    },
    {
      "hash": "0xd94e5fb525f8eb37713ae334794f1b5b6f0e4f0c61848f5b28e6e5196d316df3",
      "transactionType": "CALL",
      "contractName": null,
      "contractAddress": "0x494971df24509f143fdd10c860843e34384fbb6b",
      "function": "grantBridgeRole(address)",
      "arguments": [
        "0xaBE7c9aFBb6D1EAE25F005B25c4A9336F22AB37C"
      ],
      "transaction": {
        "from": "0xf8f0f5c8c3fdc3213c7bf6e4140257f8f09d22a9",
        "to": "0x494971df24509f143fdd10c860843e34384fbb6b",
        "gas": "0x1175b",
        "value": "0x0",
        "input": "0xa5e99b8e000000000000000000000000abe7c9afbb6d1eae25f005b25c4a9336f22ab37c",
        "nonce": "0x266",
        "chainId": "0xaa36a7"
      },
      "additionalContracts": [],
      "isFixedGasLimit": false
    }
  ],
  "receipts": [
    {
      "status": "0x1",
      "cumulativeGasUsed": "0x1484873",
      "logs": [
        {
          "address": "0x04f363269792a5430d67215d2f57fb0a4c6a9986",
          "topics": [
            "0x2f8788117e7eff1d82e926ec794901d17c78024a50270940304540a733656f0d",
            "0x52ba824bfabc2bcfcdf7f0edbb486ebb05e1836c90e78047efeb949990f72e5f",
            "0x000000000000000000000000abe7c9afbb6d1eae25f005b25c4a9336f22ab37c",
            "0x000000000000000000000000f8f0f5c8c3fdc3213c7bf6e4140257f8f09d22a9"
          ],
          "data": "0x",
          "blockHash": "0xc7ec76c8f2f0009074cbf761f9b38f61a62ffd3fedc1f8831db6cd6f520db362",
          "blockNumber": "0x82ee1d",
          "transactionHash": "0x29752cd5c3c239afd029d0beeb6b48a84f13d9878f997caac1f0e13953cc9b17",
          "transactionIndex": "0x8f",
          "logIndex": "0xd0",
          "removed": false
        }
      ],
      "logsBloom": "0x00000004000000000000000000000000000000000000000000000000000000000000000000000800000804000000000000000000000000000000000000000000000400000000000000000000000000000000000000000000000000000000000000000000000000000000000000000000000000000000020000000000000000000000000000000000008000000000000000000000400000000000000000000000000000000000000000000000000000000000000000000000001000000000000040000000000000000000000000000020000000000004000100000000000000000000000000000000000000000000000000000000000000000000040010000000",
      "type": "0x2",
      "transactionHash": "0x29752cd5c3c239afd029d0beeb6b48a84f13d9878f997caac1f0e13953cc9b17",
      "transactionIndex": "0x8f",
      "blockHash": "0xc7ec76c8f2f0009074cbf761f9b38f61a62ffd3fedc1f8831db6cd6f520db362",
      "blockNumber": "0x82ee1d",
      "gasUsed": "0xca40",
      "effectiveGasPrice": "0xf54b1",
      "from": "0xf8f0f5c8c3fdc3213c7bf6e4140257f8f09d22a9",
      "to": "0x04f363269792a5430d67215d2f57fb0a4c6a9986",
      "contractAddress": null
    },
    {
      "status": "0x1",
      "cumulativeGasUsed": "0x14912b3",
      "logs": [
        {
          "address": "0x494971df24509f143fdd10c860843e34384fbb6b",
          "topics": [
            "0x2f8788117e7eff1d82e926ec794901d17c78024a50270940304540a733656f0d",
            "0x52ba824bfabc2bcfcdf7f0edbb486ebb05e1836c90e78047efeb949990f72e5f",
            "0x000000000000000000000000abe7c9afbb6d1eae25f005b25c4a9336f22ab37c",
            "0x000000000000000000000000f8f0f5c8c3fdc3213c7bf6e4140257f8f09d22a9"
          ],
          "data": "0x",
          "blockHash": "0xc7ec76c8f2f0009074cbf761f9b38f61a62ffd3fedc1f8831db6cd6f520db362",
          "blockNumber": "0x82ee1d",
          "transactionHash": "0xd94e5fb525f8eb37713ae334794f1b5b6f0e4f0c61848f5b28e6e5196d316df3",
          "transactionIndex": "0x90",
          "logIndex": "0xd1",
          "removed": false
        }
      ],
      "logsBloom": "0x00000004000000000000000000000000000000000000000000000000000000000000000000000800000804000000000000000000000000000000000000000000000400000000000000000000000000000000010000000000000000000000000000000000000000000000000000000000000000000000000000020000000000000000000000000000008000000000000000000000400000000000000000000000000000000000000000000000000000000000000000000000001000000000000040000000000000000000000000000000000000000000000100000000000000000000100000000000000000000000000000000000000000000000040010000000",
      "type": "0x2",
      "transactionHash": "0xd94e5fb525f8eb37713ae334794f1b5b6f0e4f0c61848f5b28e6e5196d316df3",
      "transactionIndex": "0x90",
      "blockHash": "0xc7ec76c8f2f0009074cbf761f9b38f61a62ffd3fedc1f8831db6cd6f520db362",
      "blockNumber": "0x82ee1d",
      "gasUsed": "0xca40",
      "effectiveGasPrice": "0xf54b1",
      "from": "0xf8f0f5c8c3fdc3213c7bf6e4140257f8f09d22a9",
      "to": "0x494971df24509f143fdd10c860843e34384fbb6b",
      "contractAddress": null
    }
  ],
  "libraries": [],
  "pending": [],
  "returns": {},
  "timestamp": 1750309778,
  "chain": 11155111,
  "commit": null
}