{
  "transactions": [
    {
      "hash": "0x9784c09f4bacd8020e56386f843fdce06b9b51ff5318827f093443bae6724d61",
      "transactionType": "CALL",
      "contractName": null,
      "contractAddress": "0x737e9e068ecb113649a3640030a89c1d2b071fa8",
      "function": "grantBridgeRole(address)",
      "arguments": [
        "0xF00db7a0Bb2396e200E5E03FEB91e90AC3ce9b59"
      ],
      "transaction": {
        "from": "0xf8f0f5c8c3fdc3213c7bf6e4140257f8f09d22a9",
        "to": "0x737e9e068ecb113649a3640030a89c1d2b071fa8",
        "gas": "0x1174a",
        "value": "0x0",
        "input": "0xa5e99b8e000000000000000000000000f00db7a0bb2396e200e5e03feb91e90ac3ce9b59",
        "nonce": "0x277",
        "chainId": "0xaa36a7"
      },
      "additionalContracts": [],
      "isFixedGasLimit": false
    },
    {
      "hash": "0xba3b6461c8f50510e51425c4c472055d5bf0c4de3f92ba17e6630d0f6a542306",
      "transactionType": "CALL",
      "contractName": null,
      "contractAddress": "0xdd3515b927a12318f9341d91165a3863989d94d0",
      "function": "grantBridgeRole(address)",
      "arguments": [
        "0xF00db7a0Bb2396e200E5E03FEB91e90AC3ce9b59"
      ],
      "transaction": {
        "from": "0xf8f0f5c8c3fdc3213c7bf6e4140257f8f09d22a9",
        "to": "0xdd3515b927a12318f9341d91165a3863989d94d0",
        "gas": "0x1174a",
        "value": "0x0",
        "input": "0xa5e99b8e000000000000000000000000f00db7a0bb2396e200e5e03feb91e90ac3ce9b59",
        "nonce": "0x278",
        "chainId": "0xaa36a7"
      },
      "additionalContracts": [],
      "isFixedGasLimit": false
    }
  ],
  "receipts": [
    {
      "status": "0x1",
      "cumulativeGasUsed": "0xabecf9",
      "logs": [
        {
          "address": "0x737e9e068ecb113649a3640030a89c1d2b071fa8",
          "topics": [
            "0x2f8788117e7eff1d82e926ec794901d17c78024a50270940304540a733656f0d",
            "0x52ba824bfabc2bcfcdf7f0edbb486ebb05e1836c90e78047efeb949990f72e5f",
            "0x000000000000000000000000f00db7a0bb2396e200e5e03feb91e90ac3ce9b59",
            "0x000000000000000000000000f8f0f5c8c3fdc3213c7bf6e4140257f8f09d22a9"
          ],
          "data": "0x",
          "blockHash": "0x1252779c5ed86bbca5d9f4f9b249a988aed27d1261a1efd8ea911fd422b3db58",
          "blockNumber": "0x82efe3",
          "transactionHash": "0x9784c09f4bacd8020e56386f843fdce06b9b51ff5318827f093443bae6724d61",
          "transactionIndex": "0x8c",
          "logIndex": "0x99",
          "removed": false
        }
      ],
      "logsBloom": "0x00000004000000000000000000000000000000000000000000000000000000000000000000000800000004000000000000400000000000000000000000000020000400000000000000000000000000000000000000000400000000000000000000000000000000000000000000000000000000000000000000000000000000000000000080000000008000000000000000000000000000000000000000000000400000000800000000000000000000000000000000000000001000000000000040000000000000000000000000000000000000000000000100000000000000000000000000000000000000000000000000000000000000000000040000000000",
      "type": "0x2",
      "transactionHash": "0x9784c09f4bacd8020e56386f843fdce06b9b51ff5318827f093443bae6724d61",
      "transactionIndex": "0x8c",
      "blockHash": "0x1252779c5ed86bbca5d9f4f9b249a988aed27d1261a1efd8ea911fd422b3db58",
      "blockNumber": "0x82efe3",
      "gasUsed": "0xca34",
      "effectiveGasPrice": "0xf4ee4",
      "from": "0xf8f0f5c8c3fdc3213c7bf6e4140257f8f09d22a9",
      "to": "0x737e9e068ecb113649a3640030a89c1d2b071fa8",
      "contractAddress": null
    },
    {
      "status": "0x1",
      "cumulativeGasUsed": "0xacb72d",
      "logs": [
        {
          "address": "0xdd3515b927a12318f9341d91165a3863989d94d0",
          "topics": [
            "0x2f8788117e7eff1d82e926ec794901d17c78024a50270940304540a733656f0d",
            "0x52ba824bfabc2bcfcdf7f0edbb486ebb05e1836c90e78047efeb949990f72e5f",
            "0x000000000000000000000000f00db7a0bb2396e200e5e03feb91e90ac3ce9b59",
            "0x000000000000000000000000f8f0f5c8c3fdc3213c7bf6e4140257f8f09d22a9"
          ],
          "data": "0x",
          "blockHash": "0x1252779c5ed86bbca5d9f4f9b249a988aed27d1261a1efd8ea911fd422b3db58",
          "blockNumber": "0x82efe3",
          "transactionHash": "0xba3b6461c8f50510e51425c4c472055d5bf0c4de3f92ba17e6630d0f6a542306",
          "transactionIndex": "0x8d",
          "logIndex": "0x9a",
          "removed": false
        }
      ],
      "logsBloom": "0x00000004000000000000000000000000000000000000000000000000000000000000004000000800000004000000000000000000000000004000000000000020000400000000000000000000000000000000000000000000000000000000000000000000000000000000000000000000000000000000000000000000000000000000000080000000008000000000000000000000000000000000000000000000000000000800000000000000000000000000000000000000001000000000020040000000000000000000000000000000000000000000000100000000000000000000000000000000000000000000000000000000000000000000040000000000",
      "type": "0x2",
      "transactionHash": "0xba3b6461c8f50510e51425c4c472055d5bf0c4de3f92ba17e6630d0f6a542306",
      "transactionIndex": "0x8d",
      "blockHash": "0x1252779c5ed86bbca5d9f4f9b249a988aed27d1261a1efd8ea911fd422b3db58",
      "blockNumber": "0x82efe3",
      "gasUsed": "0xca34",
      "effectiveGasPrice": "0xf4ee4",
      "from": "0xf8f0f5c8c3fdc3213c7bf6e4140257f8f09d22a9",
      "to": "0xdd3515b927a12318f9341d91165a3863989d94d0",
      "contractAddress": null
    }
  ],
  "libraries": [],
  "pending": [],
  "returns": {},
  "timestamp": 1750315238,
  "chain": 11155111,
  "commit": null
}