{
  "transactions": [
    {
      "hash": "0x0ff8fa1350b5b7d49aa3723457668ed61b5b6adfa64c23da5350d3c8698cf9a2",
      "transactionType": "CALL",
      "contractName": null,
      "contractAddress": "0xac5317c2d9031ec9b8f2cc29d5d4f28410bcea17",
      "function": "grantBridgeRole(address)",
      "arguments": [
        "0x78148CBDdABe18918B80068beACa49625AAf6A0c"
      ],
      "transaction": {
        "from": "0xf8f0f5c8c3fdc3213c7bf6e4140257f8f09d22a9",
        "to": "0xac5317c2d9031ec9b8f2cc29d5d4f28410bcea17",
        "gas": "0x1175b",
        "value": "0x0",
        "input": "0xa5e99b8e00000000000000000000000078148cbddabe18918b80068beaca49625aaf6a0c",
        "nonce": "0x28f",
        "chainId": "0xaa36a7"
      },
      "additionalContracts": [],
      "isFixedGasLimit": false
    },
    {
      "hash": "0x90f39f0be7212c0cdf0421d056ea2c2d8ac9d130f2fa35c3e562caf2b9214de1",
      "transactionType": "CALL",
      "contractName": null,
      "contractAddress": "0x5e6973fc7b33b809dce8247280245a82ada64476",
      "function": "grantBridgeRole(address)",
      "arguments": [
        "0x78148CBDdABe18918B80068beACa49625AAf6A0c"
      ],
      "transaction": {
        "from": "0xf8f0f5c8c3fdc3213c7bf6e4140257f8f09d22a9",
        "to": "0x5e6973fc7b33b809dce8247280245a82ada64476",
        "gas": "0x1175b",
        "value": "0x0",
        "input": "0xa5e99b8e00000000000000000000000078148cbddabe18918b80068beaca49625aaf6a0c",
        "nonce": "0x290",
        "chainId": "0xaa36a7"
      },
      "additionalContracts": [],
      "isFixedGasLimit": false
    }
  ],
  "receipts": [
    {
      "status": "0x1",
      "cumulativeGasUsed": "0x112f2a9",
      "logs": [
        {
          "address": "0xac5317c2d9031ec9b8f2cc29d5d4f28410bcea17",
          "topics": [
            "0x2f8788117e7eff1d82e926ec794901d17c78024a50270940304540a733656f0d",
            "0x52ba824bfabc2bcfcdf7f0edbb486ebb05e1836c90e78047efeb949990f72e5f",
            "0x00000000000000000000000078148cbddabe18918b80068beaca49625aaf6a0c",
            "0x000000000000000000000000f8f0f5c8c3fdc3213c7bf6e4140257f8f09d22a9"
          ],
          "data": "0x",
          "blockHash": "0xf522a7240d553578592677878655de9b0e6392094e48873f7d3656f08a7b9ab0",
          "blockNumber": "0x82f3fc",
          "transactionHash": "0x0ff8fa1350b5b7d49aa3723457668ed61b5b6adfa64c23da5350d3c8698cf9a2",
          "transactionIndex": "0xb9",
          "logIndex": "0xba",
          "removed": false
        }
      ],
      "logsBloom": "0x00000004000000000000000000000000200000000000000000000000000000000000002000000800000044000000000000000000000000000000000000000000000400000000000000000000000000000008000000000000000000000000000000000000000000000000000000000000000000000000000000000000000000000000000000000020008000000000000000000000000000000000000000000000000000000000000000000000000000000000000000000000001000004000000040000000000000000000000000000000000000000000000100000000000000000000000000000000000000000000000000000000000000000000040000000000",
      "type": "0x2",
      "transactionHash": "0x0ff8fa1350b5b7d49aa3723457668ed61b5b6adfa64c23da5350d3c8698cf9a2",
      "transactionIndex": "0xb9",
      "blockHash": "0xf522a7240d553578592677878655de9b0e6392094e48873f7d3656f08a7b9ab0",
      "blockNumber": "0x82f3fc",
      "gasUsed": "0xca40",
      "effectiveGasPrice": "0x7a33d",
      "from": "0xf8f0f5c8c3fdc3213c7bf6e4140257f8f09d22a9",
      "to": "0xac5317c2d9031ec9b8f2cc29d5d4f28410bcea17",
      "contractAddress": null
    },
    {
      "status": "0x1",
      "cumulativeGasUsed": "0x113bce9",
      "logs": [
        {
          "address": "0x5e6973fc7b33b809dce8247280245a82ada64476",
          "topics": [
            "0x2f8788117e7eff1d82e926ec794901d17c78024a50270940304540a733656f0d",
            "0x52ba824bfabc2bcfcdf7f0edbb486ebb05e1836c90e78047efeb949990f72e5f",
            "0x00000000000000000000000078148cbddabe18918b80068beaca49625aaf6a0c",
            "0x000000000000000000000000f8f0f5c8c3fdc3213c7bf6e4140257f8f09d22a9"
          ],
          "data": "0x",
          "blockHash": "0xf522a7240d553578592677878655de9b0e6392094e48873f7d3656f08a7b9ab0",
          "blockNumber": "0x82f3fc",
          "transactionHash": "0x90f39f0be7212c0cdf0421d056ea2c2d8ac9d130f2fa35c3e562caf2b9214de1",
          "transactionIndex": "0xba",
          "logIndex": "0xbb",
          "removed": false
        }
      ],
      "logsBloom": "0x00000004000000000000000000000000000000000000000000000000000000000000002000000800000004000000000002000000000400000000000000000000000400000000000000000000000000000008000000000000000000000000000000000000000000000000000000000000000000000000000000000000000000000000002000000000008000000000000000000000000000000000000000000000000000000000000000000000000000000000000000000000001000004000000040000000000000000000000000000000000000000000000100000000000000000000000000000000000000000000000000000000000000000000040000000000",
      "type": "0x2",
      "transactionHash": "0x90f39f0be7212c0cdf0421d056ea2c2d8ac9d130f2fa35c3e562caf2b9214de1",
      "transactionIndex": "0xba",
      "blockHash": "0xf522a7240d553578592677878655de9b0e6392094e48873f7d3656f08a7b9ab0",
      "blockNumber": "0x82f3fc",
      "gasUsed": "0xca40",
      "effectiveGasPrice": "0x7a33d",
      "from": "0xf8f0f5c8c3fdc3213c7bf6e4140257f8f09d22a9",
      "to": "0x5e6973fc7b33b809dce8247280245a82ada64476",
      "contractAddress": null
    }
  ],
  "libraries": [],
  "pending": [],
  "returns": {},
  "timestamp": 1750327824,
  "chain": 11155111,
  "commit": null
}