{
  "transactions": [
    {
      "hash": "0x9dbb5d5d44bd29a7b66b2b9c655f7fed0b323d993b5f2a08c1b3ea236ea2dcb8",
      "transactionType": "CALL",
      "contractName": null,
      "contractAddress": "0x5d1ac791e5c8c8b74efd3203eaed78e36368b0fc",
      "function": "grantBridgeRole(address)",
      "arguments": [
        "0x230032e153772e42a9909C1E1cd43501E0D1FD0C"
      ],
      "transaction": {
        "from": "0xf8f0f5c8c3fdc3213c7bf6e4140257f8f09d22a9",
        "to": "0x5d1ac791e5c8c8b74efd3203eaed78e36368b0fc",
        "gas": "0x1174a",
        "value": "0x0",
        "input": "0xa5e99b8e000000000000000000000000230032e153772e42a9909c1e1cd43501e0d1fd0c",
        "nonce": "0x217",
        "chainId": "0xaa36a7"
      },
      "additionalContracts": [],
      "isFixedGasLimit": false
    }
  ],
  "receipts": [
    {
      "status": "0x1",
      "cumulativeGasUsed": "0x157d33a",
      "logs": [
        {
          "address": "0x5d1ac791e5c8c8b74efd3203eaed78e36368b0fc",
          "topics": [
            "0x2f8788117e7eff1d82e926ec794901d17c78024a50270940304540a733656f0d",
            "0x52ba824bfabc2bcfcdf7f0edbb486ebb05e1836c90e78047efeb949990f72e5f",
            "0x000000000000000000000000230032e153772e42a9909c1e1cd43501e0d1fd0c",
            "0x000000000000000000000000f8f0f5c8c3fdc3213c7bf6e4140257f8f09d22a9"
          ],
          "data": "0x",
          "blockHash": "0xa11305af32aba141c0e03ae59906b1ced27929026366cd87c6681265a2bfaca3",
          "blockNumber": "0x82bc1c",
          "transactionHash": "0x9dbb5d5d44bd29a7b66b2b9c655f7fed0b323d993b5f2a08c1b3ea236ea2dcb8",
          "transactionIndex": "0xaa",
          "logIndex": "0xe2",
          "removed": false
        }
      ],
      "logsBloom": "0x00000004000000000000000000000000000000000000000000000000000000000000000000000800000004000000000000000000000000000000000000000000000400000000000000000000000000000000000000000000000000000000000000000000000000000000000000000000000000000000000000800000000000000000000000080000008000000000000000000000000000000000000000000000000020000000000000000000000000000000000000000000201000000000000040000000000000000000400000000000000000000000000100040000000000000000000000000000000000000000000000000000000000000000040000000000",
      "type": "0x2",
      "transactionHash": "0x9dbb5d5d44bd29a7b66b2b9c655f7fed0b323d993b5f2a08c1b3ea236ea2dcb8",
      "transactionIndex": "0xaa",
      "blockHash": "0xa11305af32aba141c0e03ae59906b1ced27929026366cd87c6681265a2bfaca3",
      "blockNumber": "0x82bc1c",
      "gasUsed": "0xca34",
      "effectiveGasPrice": "0x96f105",
      "from": "0xf8f0f5c8c3fdc3213c7bf6e4140257f8f09d22a9",
      "to": "0x5d1ac791e5c8c8b74efd3203eaed78e36368b0fc",
      "contractAddress": null
    }
  ],
  "libraries": [],
  "pending": [],
  "returns": {},
  "timestamp": 1750155121,
  "chain": 11155111,
  "commit": null
}