{
  "transactions": [
    {
      "hash": "0xa5152bbaa66bbfcf91ea161da0f8fbb5682c8e03fd9c671f75e3cde7c9a24635",
      "transactionType": "CALL",
      "contractName": null,
      "contractAddress": "0x630c6f8adefbb1526158c4b0f4d7372634f56420",
      "function": "grantBridgeRole(address)",
      "arguments": [
        "0xF5D3f7254aEdD269fdf77B6633C1B29613E013Aa"
      ],
      "transaction": {
        "from": "0xf8f0f5c8c3fdc3213c7bf6e4140257f8f09d22a9",
        "to": "0x630c6f8adefbb1526158c4b0f4d7372634f56420",
        "gas": "0x1175b",
        "value": "0x0",
        "input": "0xa5e99b8e000000000000000000000000f5d3f7254aedd269fdf77b6633c1b29613e013aa",
        "nonce": "0x25a",
        "chainId": "0xaa36a7"
      },
      "additionalContracts": [],
      "isFixedGasLimit": false
    },
    {
      "hash": "0xb389a84947bf7762c4c2553d7e2a091e1103e7ecbdfdedfd2db9150f00836af3",
      "transactionType": "CALL",
      "contractName": null,
      "contractAddress": "0x1721ea415e8647a05c462c7f17a96e1584b5a92a",
      "function": "grantBridgeRole(address)",
      "arguments": [
        "0xF5D3f7254aEdD269fdf77B6633C1B29613E013Aa"
      ],
      "transaction": {
        "from": "0xf8f0f5c8c3fdc3213c7bf6e4140257f8f09d22a9",
        "to": "0x1721ea415e8647a05c462c7f17a96e1584b5a92a",
        "gas": "0x1175b",
        "value": "0x0",
        "input": "0xa5e99b8e000000000000000000000000f5d3f7254aedd269fdf77b6633c1b29613e013aa",
        "nonce": "0x25b",
        "chainId": "0xaa36a7"
      },
      "additionalContracts": [],
      "isFixedGasLimit": false
    }
  ],
  "receipts": [
    {
      "status": "0x1",
      "cumulativeGasUsed": "0x3163d50",
      "logs": [
        {
          "address": "0x630c6f8adefbb1526158c4b0f4d7372634f56420",
          "topics": [
            "0x2f8788117e7eff1d82e926ec794901d17c78024a50270940304540a733656f0d",
            "0x52ba824bfabc2bcfcdf7f0edbb486ebb05e1836c90e78047efeb949990f72e5f",
            "0x000000000000000000000000f5d3f7254aedd269fdf77b6633c1b29613e013aa",
            "0x000000000000000000000000f8f0f5c8c3fdc3213c7bf6e4140257f8f09d22a9"
          ],
          "data": "0x",
          "blockHash": "0xa6899667f29ab4b5319414b607e3582e7436f39c44b725a268c3cda19a68dc1a",
          "blockNumber": "0x82dcb3",
          "transactionHash": "0xa5152bbaa66bbfcf91ea161da0f8fbb5682c8e03fd9c671f75e3cde7c9a24635",
          "transactionIndex": "0x13e",
          "logIndex": "0xcb4",
          "removed": false
        }
      ],
      "logsBloom": "0x00000004000000000000000000000000000000000000000000020000000000000000000000000800000004000000000000800000000000000000000000000000000400000000000000000000000000000000000000000000000000000000000000000000000000000000000000000000000000000000000000000000000000000000000000000000008000000000000000000000000000000000000000000000000000000000000004000000000000000000000000000000001000000000000041000000000000001000000000000000000000000000000100000000000080000000000000000000000000000000000000000000000000000000040000000000",
      "type": "0x2",
      "transactionHash": "0xa5152bbaa66bbfcf91ea161da0f8fbb5682c8e03fd9c671f75e3cde7c9a24635",
      "transactionIndex": "0x13e",
      "blockHash": "0xa6899667f29ab4b5319414b607e3582e7436f39c44b725a268c3cda19a68dc1a",
      "blockNumber": "0x82dcb3",
      "gasUsed": "0xca40",
      "effectiveGasPrice": "0x233cf",
      "from": "0xf8f0f5c8c3fdc3213c7bf6e4140257f8f09d22a9",
      "to": "0x630c6f8adefbb1526158c4b0f4d7372634f56420",
      "contractAddress": null
    },
    {
      "status": "0x1",
      "cumulativeGasUsed": "0x318409a",
      "logs": [
        {
          "address": "0x1721ea415e8647a05c462c7f17a96e1584b5a92a",
          "topics": [
            "0x2f8788117e7eff1d82e926ec794901d17c78024a50270940304540a733656f0d",
            "0x52ba824bfabc2bcfcdf7f0edbb486ebb05e1836c90e78047efeb949990f72e5f",
            "0x000000000000000000000000f5d3f7254aedd269fdf77b6633c1b29613e013aa",
            "0x000000000000000000000000f8f0f5c8c3fdc3213c7bf6e4140257f8f09d22a9"
          ],
          "data": "0x",
          "blockHash": "0xa6899667f29ab4b5319414b607e3582e7436f39c44b725a268c3cda19a68dc1a",
          "blockNumber": "0x82dcb3",
          "transactionHash": "0xb389a84947bf7762c4c2553d7e2a091e1103e7ecbdfdedfd2db9150f00836af3",
          "transactionIndex": "0x140",
          "logIndex": "0xcb7",
          "removed": false
        }
      ],
      "logsBloom": "0x00000004000000000000000000000000000000000000000000000000000000000000000000000800000004000000000000800000000000000000000000000000000400000000000000000000000000000000000000000000000000000000000000000000000000000000000000000000000000000000000000000000000000000000000000000000008000000000000000000000000000000000000200000000000000000000000000000000000000000000000000200000001000000000000041000000000000000000000000000000000020000000000100000000000080000000000000000000000000000000000000000000000000000000040000000000",
      "type": "0x2",
      "transactionHash": "0xb389a84947bf7762c4c2553d7e2a091e1103e7ecbdfdedfd2db9150f00836af3",
      "transactionIndex": "0x140",
      "blockHash": "0xa6899667f29ab4b5319414b607e3582e7436f39c44b725a268c3cda19a68dc1a",
      "blockNumber": "0x82dcb3",
      "gasUsed": "0xca40",
      "effectiveGasPrice": "0x233cf",
      "from": "0xf8f0f5c8c3fdc3213c7bf6e4140257f8f09d22a9",
      "to": "0x1721ea415e8647a05c462c7f17a96e1584b5a92a",
      "contractAddress": null
    }
  ],
  "libraries": [],
  "pending": [],
  "returns": {},
  "timestamp": 1750255897,
  "chain": 11155111,
  "commit": null
}