{
  "transactions": [
    {
      "hash": "0x4a267cc21d90fa26c142808b93aa64ce661971271baabeb66f85adffaaa66b87",
      "transactionType": "CALL",
      "contractName": null,
      "contractAddress": "0x7b5d34908990a8428c8a36dc4816a3bab9b75739",
      "function": "grantBridgeRole(address)",
      "arguments": [
        "0x1FAF0A82c15E92b7C5687FB7FE459e77d7AD3622"
      ],
      "transaction": {
        "from": "0xf8f0f5c8c3fdc3213c7bf6e4140257f8f09d22a9",
        "to": "0x7b5d34908990a8428c8a36dc4816a3bab9b75739",
        "gas": "0x1175b",
        "value": "0x0",
        "input": "0xa5e99b8e0000000000000000000000001faf0a82c15e92b7c5687fb7fe459e77d7ad3622",
        "nonce": "0x2b0",
        "chainId": "0xaa36a7"
      },
      "additionalContracts": [],
      "isFixedGasLimit": false
    },
    {
      "hash": "0xc922101065592a5b0eb7686262bfd5b5d945a04b0d02fa4c0d5b30a1aace0392",
      "transactionType": "CALL",
      "contractName": null,
      "contractAddress": "0xbca45ce732a96564251909005025434542392b83",
      "function": "grantBridgeRole(address)",
      "arguments": [
        "0x1FAF0A82c15E92b7C5687FB7FE459e77d7AD3622"
      ],
      "transaction": {
        "from": "0xf8f0f5c8c3fdc3213c7bf6e4140257f8f09d22a9",
        "to": "0xbca45ce732a96564251909005025434542392b83",
        "gas": "0x1175b",
        "value": "0x0",
        "input": "0xa5e99b8e0000000000000000000000001faf0a82c15e92b7c5687fb7fe459e77d7ad3622",
        "nonce": "0x2b1",
        "chainId": "0xaa36a7"
      },
      "additionalContracts": [],
      "isFixedGasLimit": false
    }
  ],
  "receipts": [
    {
      "status": "0x1",
      "cumulativeGasUsed": "0x1694119",
      "logs": [
        {
          "address": "0x7b5d34908990a8428c8a36dc4816a3bab9b75739",
          "topics": [
            "0x2f8788117e7eff1d82e926ec794901d17c78024a50270940304540a733656f0d",
            "0x52ba824bfabc2bcfcdf7f0edbb486ebb05e1836c90e78047efeb949990f72e5f",
            "0x0000000000000000000000001faf0a82c15e92b7c5687fb7fe459e77d7ad3622",
            "0x000000000000000000000000f8f0f5c8c3fdc3213c7bf6e4140257f8f09d22a9"
          ],
          "data": "0x",
          "blockHash": "0xa3421df68a7838ae4bdb2e09385dc1b8a3089b8e1c81ac3f4dcc049dd599c7a9",
          "blockNumber": "0x82f77a",
          "transactionHash": "0x4a267cc21d90fa26c142808b93aa64ce661971271baabeb66f85adffaaa66b87",
          "transactionIndex": "0x95",
          "logIndex": "0x98",
          "removed": false
        }
      ],
      "logsBloom": "0x00000004000000000000000000000000000000000000000000000000000800000000000000000800000004000000000000000000000000000000000000000000800400000000008000000000000000000000000000000000000000000000000000000000000000000000000000000000000000000000000000000000000000000000200000000000008000000000000000000000000000000000000000000000000000000000000000000000000000000000000000000004001000000000000040000000000000000000000000000000000000000000000100000000000000000020000000000000000000000000000000000000000000000000040000000000",
      "type": "0x2",
      "transactionHash": "0x4a267cc21d90fa26c142808b93aa64ce661971271baabeb66f85adffaaa66b87",
      "transactionIndex": "0x95",
      "blockHash": "0xa3421df68a7838ae4bdb2e09385dc1b8a3089b8e1c81ac3f4dcc049dd599c7a9",
      "blockNumber": "0x82f77a",
      "gasUsed": "0xca40",
      "effectiveGasPrice": "0xf4251",
      "from": "0xf8f0f5c8c3fdc3213c7bf6e4140257f8f09d22a9",
      "to": "0x7b5d34908990a8428c8a36dc4816a3bab9b75739",
      "contractAddress": null
    },
    {
      "status": "0x1",
      "cumulativeGasUsed": "0x16a0b59",
      "logs": [
        {
          "address": "0xbca45ce732a96564251909005025434542392b83",
          "topics": [
            "0x2f8788117e7eff1d82e926ec794901d17c78024a50270940304540a733656f0d",
            "0x52ba824bfabc2bcfcdf7f0edbb486ebb05e1836c90e78047efeb949990f72e5f",
            "0x0000000000000000000000001faf0a82c15e92b7c5687fb7fe459e77d7ad3622",
            "0x000000000000000000000000f8f0f5c8c3fdc3213c7bf6e4140257f8f09d22a9"
          ],
          "data": "0x",
          "blockHash": "0xa3421df68a7838ae4bdb2e09385dc1b8a3089b8e1c81ac3f4dcc049dd599c7a9",
          "blockNumber": "0x82f77a",
          "transactionHash": "0xc922101065592a5b0eb7686262bfd5b5d945a04b0d02fa4c0d5b30a1aace0392",
          "transactionIndex": "0x96",
          "logIndex": "0x99",
          "removed": false
        }
      ],
      "logsBloom": "0x00000004000000000000000000000000000000000000000000000000000800000000000000000800000004000000000000000000000000000000000000000000000400000000008000000000100000000000000000000000000000000000000000000000000000000000000000000000000000000000000000000000000000000000000000000000008000000000000000000000000000000000000000000000000000000000000000000040000000000000000000000000001000000000000040000000000000000000000020000000000000000000000100000000000000000020000000000000000000000000000000000000000000000000040000000000",
      "type": "0x2",
      "transactionHash": "0xc922101065592a5b0eb7686262bfd5b5d945a04b0d02fa4c0d5b30a1aace0392",
      "transactionIndex": "0x96",
      "blockHash": "0xa3421df68a7838ae4bdb2e09385dc1b8a3089b8e1c81ac3f4dcc049dd599c7a9",
      "blockNumber": "0x82f77a",
      "gasUsed": "0xca40",
      "effectiveGasPrice": "0xf4251",
      "from": "0xf8f0f5c8c3fdc3213c7bf6e4140257f8f09d22a9",
      "to": "0xbca45ce732a96564251909005025434542392b83",
      "contractAddress": null
    }
  ],
  "libraries": [],
  "pending": [],
  "returns": {},
  "timestamp": 1750338686,
  "chain": 11155111,
  "commit": null
}