{
  "transactions": [
    {
      "hash": "0x750fe3ac83b5504c7938ae407cb5622aabf356c7d49829deb593d77b437b480d",
      "transactionType": "CALL",
      "contractName": null,
      "contractAddress": "0x381efe6e2bb09d5cda7cee07ba76e1e76106f2e1",
      "function": "grantBridgeRole(address)",
      "arguments": [
        "0xb6f03416C197c2eE14798c16ad0E3Fc191F5A911"
      ],
      "transaction": {
        "from": "0xf8f0f5c8c3fdc3213c7bf6e4140257f8f09d22a9",
        "to": "0x381efe6e2bb09d5cda7cee07ba76e1e76106f2e1",
        "gas": "0x1175b",
        "value": "0x0",
        "input": "0xa5e99b8e000000000000000000000000b6f03416c197c2ee14798c16ad0e3fc191f5a911",
        "nonce": "0x26e",
        "chainId": "0xaa36a7"
      },
      "additionalContracts": [],
      "isFixedGasLimit": false
    },
    {
      "hash": "0x917e08e19c1a47e5274a17553ee121c9957cdf511c0bbe1047c9ef3d19999039",
      "transactionType": "CALL",
      "contractName": null,
      "contractAddress": "0x43dae030bb4baa5f971c391941254b94bf6e9e12",
      "function": "grantBridgeRole(address)",
      "arguments": [
        "0xb6f03416C197c2eE14798c16ad0E3Fc191F5A911"
      ],
      "transaction": {
        "from": "0xf8f0f5c8c3fdc3213c7bf6e4140257f8f09d22a9",
        "to": "0x43dae030bb4baa5f971c391941254b94bf6e9e12",
        "gas": "0x1175b",
        "value": "0x0",
        "input": "0xa5e99b8e000000000000000000000000b6f03416c197c2ee14798c16ad0e3fc191f5a911",
        "nonce": "0x26f",
        "chainId": "0xaa36a7"
      },
      "additionalContracts": [],
      "isFixedGasLimit": false
    }
  ],
  "receipts": [
    {
      "status": "0x1",
      "cumulativeGasUsed": "0xd641c0",
      "logs": [
        {
          "address": "0x381efe6e2bb09d5cda7cee07ba76e1e76106f2e1",
          "topics": [
            "0x2f8788117e7eff1d82e926ec794901d17c78024a50270940304540a733656f0d",
            "0x52ba824bfabc2bcfcdf7f0edbb486ebb05e1836c90e78047efeb949990f72e5f",
            "0x000000000000000000000000b6f03416c197c2ee14798c16ad0e3fc191f5a911",
            "0x000000000000000000000000f8f0f5c8c3fdc3213c7bf6e4140257f8f09d22a9"
          ],
          "data": "0x",
          "blockHash": "0xe23babbd3d6d6ab977659c5c596baf5b54ef2fb5142fd79b8ccd0b8238038d4f",
          "blockNumber": "0x82ee8c",
          "transactionHash": "0x750fe3ac83b5504c7938ae407cb5622aabf356c7d49829deb593d77b437b480d",
          "transactionIndex": "0xa2",
          "logIndex": "0x96",
          "removed": false
        }
      ],
      "logsBloom": "0x00000004000000000000000000000000000000000000000000000040000000000800000000000800000004000000000000000000000000000000000000000000000400000000000000000000000000000000000000000000000000000000000000000000000000000000000000000000000000000000000000000000000000000000000000000000008000000000000000020000000000000000000000000000000000000000000000000000000000000000000000000000001000000000000040000000000000000000000000000000000000000000000100000040000000000002000000000000000000000000000000000000000000100000040000000000",
      "type": "0x2",
      "transactionHash": "0x750fe3ac83b5504c7938ae407cb5622aabf356c7d49829deb593d77b437b480d",
      "transactionIndex": "0xa2",
      "blockHash": "0xe23babbd3d6d6ab977659c5c596baf5b54ef2fb5142fd79b8ccd0b8238038d4f",
      "blockNumber": "0x82ee8c",
      "gasUsed": "0xca40",
      "effectiveGasPrice": "0xf4f9e",
      "from": "0xf8f0f5c8c3fdc3213c7bf6e4140257f8f09d22a9",
      "to": "0x381efe6e2bb09d5cda7cee07ba76e1e76106f2e1",
      "contractAddress": null
    },
    {
      "status": "0x1",
      "cumulativeGasUsed": "0xca1bf5",
      "logs": [
        {
          "address": "0x43dae030bb4baa5f971c391941254b94bf6e9e12",
          "topics": [
            "0x2f8788117e7eff1d82e926ec794901d17c78024a50270940304540a733656f0d",
            "0x52ba824bfabc2bcfcdf7f0edbb486ebb05e1836c90e78047efeb949990f72e5f",
            "0x000000000000000000000000b6f03416c197c2ee14798c16ad0e3fc191f5a911",
            "0x000000000000000000000000f8f0f5c8c3fdc3213c7bf6e4140257f8f09d22a9"
          ],
          "data": "0x",
          "blockHash": "0x0ee8bb235d4c14e2cceeb23fd220e6803863928ab3b23fdb570427c9e4cb1b1c",
          "blockNumber": "0x82ee8d",
          "transactionHash": "0x917e08e19c1a47e5274a17553ee121c9957cdf511c0bbe1047c9ef3d19999039",
          "transactionIndex": "0x90",
          "logIndex": "0x91",
          "removed": false
        }
      ],
      "logsBloom": "0x00000004000000000000000000000000000000000000000000000040000000000000000000000800000004000000000000000000000000000000000000000000000400000000000000000000000000000000000000000000000000000000000000000000000800000000000000000000000000000000000000000000000000000000000000000000008000000000000000020000000000000000000000000000000000000000000000000000000000000000000000000001001000000000000040000000000000000000000000000000000000000000000100000000000000000000000000000000000000000000000000000000000000100000840000000000",
      "type": "0x2",
      "transactionHash": "0x917e08e19c1a47e5274a17553ee121c9957cdf511c0bbe1047c9ef3d19999039",
      "transactionIndex": "0x90",
      "blockHash": "0x0ee8bb235d4c14e2cceeb23fd220e6803863928ab3b23fdb570427c9e4cb1b1c",
      "blockNumber": "0x82ee8d",
      "gasUsed": "0xca40",
      "effectiveGasPrice": "0xf4ece",
      "from": "0xf8f0f5c8c3fdc3213c7bf6e4140257f8f09d22a9",
      "to": "0x43dae030bb4baa5f971c391941254b94bf6e9e12",
      "contractAddress": null
    }
  ],
  "libraries": [],
  "pending": [],
  "returns": {},
  "timestamp": 1750311121,
  "chain": 11155111,
  "commit": null
}