{
  "transactions": [
    {
      "hash": "0xe40833283c48148ae060490bba1fafb3247472e6294e50401a0440aec5072605",
      "transactionType": "CALL",
      "contractName": null,
      "contractAddress": "0x30ca83414f1a7b811f8e64bf87e36312a1431a83",
      "function": "grantBridgeRole(address)",
      "arguments": [
        "0x8984774a9382Ab8daFC427c7a547067D30B620F2"
      ],
      "transaction": {
        "from": "0xf8f0f5c8c3fdc3213c7bf6e4140257f8f09d22a9",
        "to": "0x30ca83414f1a7b811f8e64bf87e36312a1431a83",
        "gas": "0x1175b",
        "value": "0x0",
        "input": "0xa5e99b8e0000000000000000000000008984774a9382ab8dafc427c7a547067d30b620f2",
        "nonce": "0x245",
        "chainId": "0xaa36a7"
      },
      "additionalContracts": [],
      "isFixedGasLimit": false
    },
    {
      "hash": "0x78dc48a0c5ce768b0046f306d9cb476346bd96f4afb5300fdf1a8db6f4c55e60",
      "transactionType": "CALL",
      "contractName": null,
      "contractAddress": "0xb3cc464331119fabaade5bd872fab22dc52bd70a",
      "function": "grantBridgeRole(address)",
      "arguments": [
        "0x8984774a9382Ab8daFC427c7a547067D30B620F2"
      ],
      "transaction": {
        "from": "0xf8f0f5c8c3fdc3213c7bf6e4140257f8f09d22a9",
        "to": "0xb3cc464331119fabaade5bd872fab22dc52bd70a",
        "gas": "0x1175b",
        "value": "0x0",
        "input": "0xa5e99b8e0000000000000000000000008984774a9382ab8dafc427c7a547067d30b620f2",
        "nonce": "0x246",
        "chainId": "0xaa36a7"
      },
      "additionalContracts": [],
      "isFixedGasLimit": false
    }
  ],
  "receipts": [
    {
      "status": "0x1",
      "cumulativeGasUsed": "0x169201d",
      "logs": [
        {
          "address": "0x30ca83414f1a7b811f8e64bf87e36312a1431a83",
          "topics": [
            "0x2f8788117e7eff1d82e926ec794901d17c78024a50270940304540a733656f0d",
            "0x52ba824bfabc2bcfcdf7f0edbb486ebb05e1836c90e78047efeb949990f72e5f",
            "0x0000000000000000000000008984774a9382ab8dafc427c7a547067d30b620f2",
            "0x000000000000000000000000f8f0f5c8c3fdc3213c7bf6e4140257f8f09d22a9"
          ],
          "data": "0x",
          "blockHash": "0x8977ed5e7490a894907e9a5e9e66fda0c438e3bf7de4478eeeb4ae4e6e1bdc6f",
          "blockNumber": "0x82dacf",
          "transactionHash": "0xe40833283c48148ae060490bba1fafb3247472e6294e50401a0440aec5072605",
          "transactionIndex": "0xff",
          "logIndex": "0x11f",
          "removed": false
        }
      ],
      "logsBloom": "0x00000004000000000000000000000000000000000000000000000000000000000000000000000800000004000000000000000000000000000002000000000000000400001000000000000000000000000000000000000000000000080000000000000000000000000000000000000000000000000000000000000000000200000000000000000000008000000000000000000000000000000000000000000000000000000000000000000000000000000000000000000000001000000000400040000000000000000000000000000000000000000000000100000000000000000000000000000000000000000000000000000000000000000000040000000008",
      "type": "0x2",
      "transactionHash": "0xe40833283c48148ae060490bba1fafb3247472e6294e50401a0440aec5072605",
      "transactionIndex": "0xff",
      "blockHash": "0x8977ed5e7490a894907e9a5e9e66fda0c438e3bf7de4478eeeb4ae4e6e1bdc6f",
      "blockNumber": "0x82dacf",
      "gasUsed": "0xca40",
      "effectiveGasPrice": "0xfde71",
      "from": "0xf8f0f5c8c3fdc3213c7bf6e4140257f8f09d22a9",
      "to": "0x30ca83414f1a7b811f8e64bf87e36312a1431a83",
      "contractAddress": null
    },
    {
      "status": "0x1",
      "cumulativeGasUsed": "0x169ea5d",
      "logs": [
        {
          "address": "0xb3cc464331119fabaade5bd872fab22dc52bd70a",
          "topics": [
            "0x2f8788117e7eff1d82e926ec794901d17c78024a50270940304540a733656f0d",
            "0x52ba824bfabc2bcfcdf7f0edbb486ebb05e1836c90e78047efeb949990f72e5f",
            "0x0000000000000000000000008984774a9382ab8dafc427c7a547067d30b620f2",
            "0x000000000000000000000000f8f0f5c8c3fdc3213c7bf6e4140257f8f09d22a9"
          ],
          "data": "0x",
          "blockHash": "0x8977ed5e7490a894907e9a5e9e66fda0c438e3bf7de4478eeeb4ae4e6e1bdc6f",
          "blockNumber": "0x82dacf",
          "transactionHash": "0x78dc48a0c5ce768b0046f306d9cb476346bd96f4afb5300fdf1a8db6f4c55e60",
          "transactionIndex": "0x100",
          "logIndex": "0x120",
          "removed": false
        }
      ],
      "logsBloom": "0x00000004000000000000000000000000000000000000000000000000000000000000000000000800000004000000002000000000000000000002000000000000000400000000000000000000000000000000000000000000000000000000000000000000000000000000000000000000000000000000000000000008000200000000000000000000008000000000000000000000000000000000000000000000000000000000000000000000000000000000000000000000001000000000000040000000000000000010000000000000000000000000000100000000000000000000000000000000000000000000000000000000000000000000040000000008",
      "type": "0x2",
      "transactionHash": "0x78dc48a0c5ce768b0046f306d9cb476346bd96f4afb5300fdf1a8db6f4c55e60",
      "transactionIndex": "0x100",
      "blockHash": "0x8977ed5e7490a894907e9a5e9e66fda0c438e3bf7de4478eeeb4ae4e6e1bdc6f",
      "blockNumber": "0x82dacf",
      "gasUsed": "0xca40",
      "effectiveGasPrice": "0xfde71",
      "from": "0xf8f0f5c8c3fdc3213c7bf6e4140257f8f09d22a9",
      "to": "0xb3cc464331119fabaade5bd872fab22dc52bd70a",
      "contractAddress": null
    }
  ],
  "libraries": [],
  "pending": [],
  "returns": {},
  "timestamp": 1750249753,
  "chain": 11155111,
  "commit": null
}