{
  "transactions": [
    {
      "hash": "0x26cf37036cc9871e731fb28c3f4528eccd2df5412548e936622b80a6ba19b357",
      "transactionType": "CALL",
      "contractName": null,
      "contractAddress": "0xba68409f52144e8a37f6796a833ceacf2f0c1ecb",
      "function": "grantBridgeRole(address)",
      "arguments": [
        "0xd4D58d1AA454c83ffDdb07C6a9d9751Db4F7EDf2"
      ],
      "transaction": {
        "from": "0xf8f0f5c8c3fdc3213c7bf6e4140257f8f09d22a9",
        "to": "0xba68409f52144e8a37f6796a833ceacf2f0c1ecb",
        "gas": "0x1175b",
        "value": "0x0",
        "input": "0xa5e99b8e000000000000000000000000d4d58d1aa454c83ffddb07c6a9d9751db4f7edf2",
        "nonce": "0x280",
        "chainId": "0xaa36a7"
      },
      "additionalContracts": [],
      "isFixedGasLimit": false
    },
    {
      "hash": "0x325d98fbc525965cd228b993a3b4e052ab7ccf0ff99587b20f20ca602bd725e0",
      "transactionType": "CALL",
      "contractName": null,
      "contractAddress": "0x521faeaf8a7d853a5bf21013350e010daa362d90",
      "function": "grantBridgeRole(address)",
      "arguments": [
        "0xd4D58d1AA454c83ffDdb07C6a9d9751Db4F7EDf2"
      ],
      "transaction": {
        "from": "0xf8f0f5c8c3fdc3213c7bf6e4140257f8f09d22a9",
        "to": "0x521faeaf8a7d853a5bf21013350e010daa362d90",
        "gas": "0x1175b",
        "value": "0x0",
        "input": "0xa5e99b8e000000000000000000000000d4d58d1aa454c83ffddb07c6a9d9751db4f7edf2",
        "nonce": "0x281",
        "chainId": "0xaa36a7"
      },
      "additionalContracts": [],
      "isFixedGasLimit": false
    }
  ],
  "receipts": [
    {
      "status": "0x1",
      "cumulativeGasUsed": "0xbffb1d",
      "logs": [
        {
          "address": "0xba68409f52144e8a37f6796a833ceacf2f0c1ecb",
          "topics": [
            "0x2f8788117e7eff1d82e926ec794901d17c78024a50270940304540a733656f0d",
            "0x52ba824bfabc2bcfcdf7f0edbb486ebb05e1836c90e78047efeb949990f72e5f",
            "0x000000000000000000000000d4d58d1aa454c83ffddb07c6a9d9751db4f7edf2",
            "0x000000000000000000000000f8f0f5c8c3fdc3213c7bf6e4140257f8f09d22a9"
          ],
          "data": "0x",
          "blockHash": "0x7b2515c810e5fc4676baedfe584ca2625404e2062a7e2644cf9ca5da8c701c81",
          "blockNumber": "0x82f130",
          "transactionHash": "0x26cf37036cc9871e731fb28c3f4528eccd2df5412548e936622b80a6ba19b357",
          "transactionIndex": "0x50",
          "logIndex": "0x77",
          "removed": false
        }
      ],
      "logsBloom": "0x00000004000000000004000000000000000000004000000000000000000000000000000000000800000004000000000000000000000200000000000000000000000400000000000000000000000000000000000000000000000000000000000000000000000000000000000000000000000000000000000000020000000000000000000000000000008000000000000000000000000000000000000000000000000000020000000000000000000000000000000000000000001000000000000040000000000000000000000000001000000000000000000100000000000000000000000000000000000000000000000000000000000000000000040000000000",
      "type": "0x2",
      "transactionHash": "0x26cf37036cc9871e731fb28c3f4528eccd2df5412548e936622b80a6ba19b357",
      "transactionIndex": "0x50",
      "blockHash": "0x7b2515c810e5fc4676baedfe584ca2625404e2062a7e2644cf9ca5da8c701c81",
      "blockNumber": "0x82f130",
      "gasUsed": "0xca40",
      "effectiveGasPrice": "0x14a642",
      "from": "0xf8f0f5c8c3fdc3213c7bf6e4140257f8f09d22a9",
      "to": "0xba68409f52144e8a37f6796a833ceacf2f0c1ecb",
      "contractAddress": null
    },
    {
      "status": "0x1",
      "cumulativeGasUsed": "0xc0c55d",
      "logs": [
        {
          "address": "0x521faeaf8a7d853a5bf21013350e010daa362d90",
          "topics": [
            "0x2f8788117e7eff1d82e926ec794901d17c78024a50270940304540a733656f0d",
            "0x52ba824bfabc2bcfcdf7f0edbb486ebb05e1836c90e78047efeb949990f72e5f",
            "0x000000000000000000000000d4d58d1aa454c83ffddb07c6a9d9751db4f7edf2",
            "0x000000000000000000000000f8f0f5c8c3fdc3213c7bf6e4140257f8f09d22a9"
          ],
          "data": "0x",
          "blockHash": "0x7b2515c810e5fc4676baedfe584ca2625404e2062a7e2644cf9ca5da8c701c81",
          "blockNumber": "0x82f130",
          "transactionHash": "0x325d98fbc525965cd228b993a3b4e052ab7ccf0ff99587b20f20ca602bd725e0",
          "transactionIndex": "0x51",
          "logIndex": "0x78",
          "removed": false
        }
      ],
      "logsBloom": "0x00000004000000000000000000000010000000004000000000000000000000000000000000000800000004000000000000000000000000000000000000000000000400000000000000000000000000000000000000000000000000400000000000000000000000000000000000000000000000000000000000000000000000000000000001000000008000000000000000000000000000000000000000000000000000020000000000000000000000000000000000000000001000000000000040000000000000000000000000001000000000000000000100000000000000000000000000000000000000000000000000000000000000000000040000000000",
      "type": "0x2",
      "transactionHash": "0x325d98fbc525965cd228b993a3b4e052ab7ccf0ff99587b20f20ca602bd725e0",
      "transactionIndex": "0x51",
      "blockHash": "0x7b2515c810e5fc4676baedfe584ca2625404e2062a7e2644cf9ca5da8c701c81",
      "blockNumber": "0x82f130",
      "gasUsed": "0xca40",
      "effectiveGasPrice": "0x14a642",
      "from": "0xf8f0f5c8c3fdc3213c7bf6e4140257f8f09d22a9",
      "to": "0x521faeaf8a7d853a5bf21013350e010daa362d90",
      "contractAddress": null
    }
  ],
  "libraries": [],
  "pending": [],
  "returns": {},
  "timestamp": 1750319232,
  "chain": 11155111,
  "commit": null
}