{
  "transactions": [
    {
      "hash": "0x4a007bd623a8e5a66663196130e546aa3d7b29392950d190320e13d6731d64bf",
      "transactionType": "CALL",
      "contractName": null,
      "contractAddress": "0x056da8da5585376875b824f96fa4c4008cc5565f",
      "function": "grantBridgeRole(address)",
      "arguments": [
        "0x7aC56201e008f4e5b2695d14A3e1cf7C56872b0C"
      ],
      "transaction": {
        "from": "0xf8f0f5c8c3fdc3213c7bf6e4140257f8f09d22a9",
        "to": "0x056da8da5585376875b824f96fa4c4008cc5565f",
        "gas": "0x1175b",
        "value": "0x0",
        "input": "0xa5e99b8e0000000000000000000000007ac56201e008f4e5b2695d14a3e1cf7c56872b0c",
        "nonce": "0x2d9",
        "chainId": "0xaa36a7"
      },
      "additionalContracts": [],
      "isFixedGasLimit": false
    },
    {
      "hash": "0x32d3f20b9d4a147e7ec4bac5a0084d20220ff9e2b5a4d4beaccab66ff88afae9",
      "transactionType": "CALL",
      "contractName": null,
      "contractAddress": "0x91f012aa63dc071d83a23b494f0023f08f0df2a8",
      "function": "grantBridgeRole(address)",
      "arguments": [
        "0x7aC56201e008f4e5b2695d14A3e1cf7C56872b0C"
      ],
      "transaction": {
        "from": "0xf8f0f5c8c3fdc3213c7bf6e4140257f8f09d22a9",
        "to": "0x91f012aa63dc071d83a23b494f0023f08f0df2a8",
        "gas": "0x1175b",
        "value": "0x0",
        "input": "0xa5e99b8e0000000000000000000000007ac56201e008f4e5b2695d14a3e1cf7c56872b0c",
        "nonce": "0x2da",
        "chainId": "0xaa36a7"
      },
      "additionalContracts": [],
      "isFixedGasLimit": false
    }
  ],
  "receipts": [
    {
      "status": "0x1",
      "cumulativeGasUsed": "0x143e52f",
      "logs": [
        {
          "address": "0x056da8da5585376875b824f96fa4c4008cc5565f",
          "topics": [
            "0x2f8788117e7eff1d82e926ec794901d17c78024a50270940304540a733656f0d",
            "0x52ba824bfabc2bcfcdf7f0edbb486ebb05e1836c90e78047efeb949990f72e5f",
            "0x0000000000000000000000007ac56201e008f4e5b2695d14a3e1cf7c56872b0c",
            "0x000000000000000000000000f8f0f5c8c3fdc3213c7bf6e4140257f8f09d22a9"
          ],
          "data": "0x",
          "blockHash": "0xa96b37e9282be5c34b461c148164185087adef09422839d8e6acd7a3294b6426",
          "blockNumber": "0x831320",
          "transactionHash": "0x4a007bd623a8e5a66663196130e546aa3d7b29392950d190320e13d6731d64bf",
          "transactionIndex": "0xa3",
          "logIndex": "0x111",
          "removed": false
        }
      ],
      "logsBloom": "0x00000004000000020000000000000000000000000000000000000000000000000000000000000800000004000000000000000000000000000000001000000000000400000000000000000000000000000080000000000000000000000000000000000000000000000800000000000000000000000000000000000000000000000000000000000000008000000000000000000000000000000000000000000000000000000000000000000000000000000000000000000000001000000000000040000000000000000000000000000000000000080000000100000000000000000000000000000000000000000000000000000000000010000000040000000000",
      "type": "0x2",
      "transactionHash": "0x4a007bd623a8e5a66663196130e546aa3d7b29392950d190320e13d6731d64bf",
      "transactionIndex": "0xa3",
      "blockHash": "0xa96b37e9282be5c34b461c148164185087adef09422839d8e6acd7a3294b6426",
      "blockNumber": "0x831320",
      "gasUsed": "0xca40",
      "effectiveGasPrice": "0x1939aa8",
      "blobGasUsed": "0x0",
      "from": "0xf8f0f5c8c3fdc3213c7bf6e4140257f8f09d22a9",
      "to": "0x056da8da5585376875b824f96fa4c4008cc5565f",
      "contractAddress": null
    },
    {
      "status": "0x1",
      "cumulativeGasUsed": "0x1a632ec",
      "logs": [
        {
          "address": "0x91f012aa63dc071d83a23b494f0023f08f0df2a8",
          "topics": [
            "0x2f8788117e7eff1d82e926ec794901d17c78024a50270940304540a733656f0d",
            "0x52ba824bfabc2bcfcdf7f0edbb486ebb05e1836c90e78047efeb949990f72e5f",
            "0x0000000000000000000000007ac56201e008f4e5b2695d14a3e1cf7c56872b0c",
            "0x000000000000000000000000f8f0f5c8c3fdc3213c7bf6e4140257f8f09d22a9"
          ],
          "data": "0x",
          "blockHash": "0xe4f4d904217c4dc28ae0d41950b9817e43359702c7c9e5aae0b672b3a7c9c860",
          "blockNumber": "0x831322",
          "transactionHash": "0x32d3f20b9d4a147e7ec4bac5a0084d20220ff9e2b5a4d4beaccab66ff88afae9",
          "transactionIndex": "0xd3",
          "logIndex": "0x138",
          "removed": false
        }
      ],
      "logsBloom": "0x00000004000000000000000000000000000000000000000000000000000000000000000000000800000004000000000000000000000000000000001000000000000400000000000000000000000000000080000000000000000000000000000000000000000000010800000000000000000000000000000000000000000000000000000000000000008000000000000000000000000000000000000000000000000000000000000000000000000000000000000000000000001000000000000040000000000000000000000000000000000000000000000100002000000000000000000010000000000000000000000000000000000000000000040000000000",
      "type": "0x2",
      "transactionHash": "0x32d3f20b9d4a147e7ec4bac5a0084d20220ff9e2b5a4d4beaccab66ff88afae9",
      "transactionIndex": "0xd3",
      "blockHash": "0xe4f4d904217c4dc28ae0d41950b9817e43359702c7c9e5aae0b672b3a7c9c860",
      "blockNumber": "0x831322",
      "gasUsed": "0xca40",
      "effectiveGasPrice": "0x16c0c72",
      "blobGasUsed": "0x0",
      "from": "0xf8f0f5c8c3fdc3213c7bf6e4140257f8f09d22a9",
      "to": "0x91f012aa63dc071d83a23b494f0023f08f0df2a8",
      "contractAddress": null
    }
  ],
  "libraries": [],
  "pending": [],
  "returns": {},
  "timestamp": 1750423875,
  "chain": 11155111,
  "commit": null
}