{
  "transactions": [
    {
      "hash": "0x15babda0da6783641a563b92192301d0297f451cb22a55104dce530009af9ccd",
      "transactionType": "CALL",
      "contractName": null,
      "contractAddress": "0x40205ffcd91b30fa52acfb7177a4988f9630486a",
      "function": "grantBridgeRole(address)",
      "arguments": [
        "0x0F2946aFb0cb194272e596Cf80f438f1f13472c5"
      ],
      "transaction": {
        "from": "0xf8f0f5c8c3fdc3213c7bf6e4140257f8f09d22a9",
        "to": "0x40205ffcd91b30fa52acfb7177a4988f9630486a",
        "gas": "0x1175b",
        "value": "0x0",
        "input": "0xa5e99b8e0000000000000000000000000f2946afb0cb194272e596cf80f438f1f13472c5",
        "nonce": "0x1f8",
        "chainId": "0xaa36a7"
      },
      "additionalContracts": [],
      "isFixedGasLimit": false
    }
  ],
  "receipts": [
    {
      "status": "0x1",
      "cumulativeGasUsed": "0xf67d2c",
      "logs": [
        {
          "address": "0x40205ffcd91b30fa52acfb7177a4988f9630486a",
          "topics": [
            "0x2f8788117e7eff1d82e926ec794901d17c78024a50270940304540a733656f0d",
            "0x52ba824bfabc2bcfcdf7f0edbb486ebb05e1836c90e78047efeb949990f72e5f",
            "0x0000000000000000000000000f2946afb0cb194272e596cf80f438f1f13472c5",
            "0x000000000000000000000000f8f0f5c8c3fdc3213c7bf6e4140257f8f09d22a9"
          ],
          "data": "0x",
          "blockHash": "0xf901ab527ff26b858af1fe01213af4d16a0d014680b6989ba67cffd0974781f0",
          "blockNumber": "0x82b87f",
          "transactionHash": "0x15babda0da6783641a563b92192301d0297f451cb22a55104dce530009af9ccd",
          "transactionIndex": "0x85",
          "logIndex": "0xe1",
          "removed": false
        }
      ],
      "logsBloom": "0x00000004000000000000000000000000000000000000000000000000000000000000000000000800000004000000000000000000000000000000000000000000000400000000000000000000000000000000000000000000000000000000000000000020000000002000000000400000000000000000000000000000000000000000000000000000008000000000000000000000000000000000000000000000000000000000000000000040000000000000000000000000001000000000000042000000000000000000000000000000000000000000000100000000000001000000000000000000000000000000000000000000000000000000040000000000",
      "type": "0x2",
      "transactionHash": "0x15babda0da6783641a563b92192301d0297f451cb22a55104dce530009af9ccd",
      "transactionIndex": "0x85",
      "blockHash": "0xf901ab527ff26b858af1fe01213af4d16a0d014680b6989ba67cffd0974781f0",
      "blockNumber": "0x82b87f",
      "gasUsed": "0xca40",
      "effectiveGasPrice": "0x248e89ac",
      "from": "0xf8f0f5c8c3fdc3213c7bf6e4140257f8f09d22a9",
      "to": "0x40205ffcd91b30fa52acfb7177a4988f9630486a",
      "contractAddress": null
    }
  ],
  "libraries": [],
  "pending": [],
  "returns": {},
  "timestamp": 1750143961,
  "chain": 11155111,
  "commit": null
}